{
  "_format": "hh-sol-artifact-1",
  "contractName": "MemeContest",
  "sourceName": "contracts/MemeContest.sol",
  "abi": [
    {
      "inputs": [
        {
          "internalType": "contract IERC20",
          "name": "_nguToken",
          "type": "address"
        }
      ],
      "stateMutability": "nonpayable",
      "type": "constructor"
    },
    {
      "inputs": [
        {
          "internalType": "address",
          "name": "sender",
          "type": "address"
        },
        {
          "internalType": "uint256",
          "name": "tokenId",
          "type": "uint256"
        },
        {
          "internalType": "address",
          "name": "owner",
          "type": "address"
        }
      ],
      "name": "ERC721IncorrectOwner",
      "type": "error"
    },
    {
      "inputs": [
        {
          "internalType": "address",
          "name": "operator",
          "type": "address"
        },
        {
          "internalType": "uint256",
          "name": "tokenId",
          "type": "uint256"
        }
      ],
      "name": "ERC721InsufficientApproval",
      "type": "error"
    },
    {
      "inputs": [
        {
          "internalType": "address",
          "name": "approver",
          "type": "address"
        }
      ],
      "name": "ERC721InvalidApprover",
      "type": "error"
    },
    {
      "inputs": [
        {
          "internalType": "address",
          "name": "operator",
          "type": "address"
        }
      ],
      "name": "ERC721InvalidOperator",
      "type": "error"
    },
    {
      "inputs": [
        {
          "internalType": "address",
          "name": "owner",
          "type": "address"
        }
      ],
      "name": "ERC721InvalidOwner",
      "type": "error"
    },
    {
      "inputs": [
        {
          "internalType": "address",
          "name": "receiver",
          "type": "address"
        }
      ],
      "name": "ERC721InvalidReceiver",
      "type": "error"
    },
    {
      "inputs": [
        {
          "internalType": "address",
          "name": "sender",
          "type": "address"
        }
      ],
      "name": "ERC721InvalidSender",
      "type": "error"
    },
    {
      "inputs": [
        {
          "internalType": "uint256",
          "name": "tokenId",
          "type": "uint256"
        }
      ],
      "name": "ERC721NonexistentToken",
      "type": "error"
    },
    {
      "inputs": [
        {
          "internalType": "address",
          "name": "owner",
          "type": "address"
        }
      ],
      "name": "OwnableInvalidOwner",
      "type": "error"
    },
    {
      "inputs": [
        {
          "internalType": "address",
          "name": "account",
          "type": "address"
        }
      ],
      "name": "OwnableUnauthorizedAccount",
      "type": "error"
    },
    {
      "inputs": [
        {
          "internalType": "address",
          "name": "token",
          "type": "address"
        }
      ],
      "name": "SafeERC20FailedOperation",
      "type": "error"
    },
    {
      "anonymous": false,
      "inputs": [
        {
          "indexed": true,
          "internalType": "address",
          "name": "owner",
          "type": "address"
        },
        {
          "indexed": true,
          "internalType": "address",
          "name": "approved",
          "type": "address"
        },
        {
          "indexed": true,
          "internalType": "uint256",
          "name": "tokenId",
          "type": "uint256"
        }
      ],
      "name": "Approval",
      "type": "event"
    },
    {
      "anonymous": false,
      "inputs": [
        {
          "indexed": true,
          "internalType": "address",
          "name": "owner",
          "type": "address"
        },
        {
          "indexed": true,
          "internalType": "address",
          "name": "operator",
          "type": "address"
        },
        {
          "indexed": false,
          "internalType": "bool",
          "name": "approved",
          "type": "bool"
        }
      ],
      "name": "ApprovalForAll",
      "type": "event"
    },
    {
      "anonymous": false,
      "inputs": [
        {
          "indexed": false,
          "internalType": "uint256",
          "name": "_fromTokenId",
          "type": "uint256"
        },
        {
          "indexed": false,
          "internalType": "uint256",
          "name": "_toTokenId",
          "type": "uint256"
        }
      ],
      "name": "BatchMetadataUpdate",
      "type": "event"
    },
    {
      "anonymous": false,
      "inputs": [
        {
          "indexed": true,
          "internalType": "uint256",
          "name": "tokenId",
          "type": "uint256"
        },
        {
          "indexed": true,
          "internalType": "address",
          "name": "creator",
          "type": "address"
        }
      ],
      "name": "MemeMinted",
      "type": "event"
    },
    {
      "anonymous": false,
      "inputs": [
        {
          "indexed": true,
          "internalType": "uint256",
          "name": "tokenId",
          "type": "uint256"
        },
        {
          "indexed": true,
          "internalType": "address",
          "name": "creator",
          "type": "address"
        },
        {
          "indexed": false,
          "internalType": "string",
          "name": "memeURI",
          "type": "string"
        }
      ],
      "name": "MemeSubmitted",
      "type": "event"
    },
    {
      "anonymous": false,
      "inputs": [
        {
          "indexed": true,
          "internalType": "uint256",
          "name": "tokenId",
          "type": "uint256"
        },
        {
          "indexed": true,
          "internalType": "address",
          "name": "voter",
          "type": "address"
        },
        {
          "indexed": false,
          "internalType": "uint256",
          "name": "voteCount",
          "type": "uint256"
        }
      ],
      "name": "MemeVoted",
      "type": "event"
    },
    {
      "anonymous": false,
      "inputs": [
        {
          "indexed": false,
          "internalType": "uint256",
          "name": "_tokenId",
          "type": "uint256"
        }
      ],
      "name": "MetadataUpdate",
      "type": "event"
    },
    {
      "anonymous": false,
      "inputs": [
        {
          "indexed": true,
          "internalType": "address",
          "name": "previousOwner",
          "type": "address"
        },
        {
          "indexed": true,
          "internalType": "address",
          "name": "newOwner",
          "type": "address"
        }
      ],
      "name": "OwnershipTransferred",
      "type": "event"
    },
    {
      "anonymous": false,
      "inputs": [
        {
          "indexed": true,
          "internalType": "address",
          "name": "from",
          "type": "address"
        },
        {
          "indexed": true,
          "internalType": "address",
          "name": "to",
          "type": "address"
        },
        {
          "indexed": true,
          "internalType": "uint256",
          "name": "tokenId",
          "type": "uint256"
        }
      ],
      "name": "Transfer",
      "type": "event"
    },
    {
      "inputs": [
        {
          "internalType": "address",
          "name": "_user",
          "type": "address"
        }
      ],
      "name": "addGalacticG",
      "outputs": [],
      "stateMutability": "nonpayable",
      "type": "function"
    },
    {
      "inputs": [
        {
          "internalType": "address",
          "name": "to",
          "type": "address"
        },
        {
          "internalType": "uint256",
          "name": "tokenId",
          "type": "uint256"
        }
      ],
      "name": "approve",
      "outputs": [],
      "stateMutability": "nonpayable",
      "type": "function"
    },
    {
      "inputs": [
        {
          "internalType": "address",
          "name": "owner",
          "type": "address"
        }
      ],
      "name": "balanceOf",
      "outputs": [
        {
          "internalType": "uint256",
          "name": "",
          "type": "uint256"
        }
      ],
      "stateMutability": "view",
      "type": "function"
    },
    {
      "inputs": [],
      "name": "creationFee",
      "outputs": [
        {
          "internalType": "uint256",
          "name": "",
          "type": "uint256"
        }
      ],
      "stateMutability": "view",
      "type": "function"
    },
    {
      "inputs": [],
      "name": "currentTokenId",
      "outputs": [
        {
          "internalType": "uint256",
          "name": "",
          "type": "uint256"
        }
      ],
      "stateMutability": "view",
      "type": "function"
    },
    {
      "inputs": [
        {
          "internalType": "address[]",
          "name": "winners",
          "type": "address[]"
        },
        {
          "internalType": "uint256[]",
          "name": "rewards",
          "type": "uint256[]"
        }
      ],
      "name": "distributeRewards",
      "outputs": [],
      "stateMutability": "nonpayable",
      "type": "function"
    },
    {
      "inputs": [
        {
          "internalType": "uint256",
          "name": "tokenId",
          "type": "uint256"
        }
      ],
      "name": "getApproved",
      "outputs": [
        {
          "internalType": "address",
          "name": "",
          "type": "address"
        }
      ],
      "stateMutability": "view",
      "type": "function"
    },
    {
      "inputs": [
        {
          "internalType": "address",
          "name": "owner",
          "type": "address"
        },
        {
          "internalType": "address",
          "name": "operator",
          "type": "address"
        }
      ],
      "name": "isApprovedForAll",
      "outputs": [
        {
          "internalType": "bool",
          "name": "",
          "type": "bool"
        }
      ],
      "stateMutability": "view",
      "type": "function"
    },
    {
      "inputs": [
        {
          "internalType": "address",
          "name": "",
          "type": "address"
        }
      ],
      "name": "isGalacticG",
      "outputs": [
        {
          "internalType": "bool",
          "name": "",
          "type": "bool"
        }
      ],
      "stateMutability": "view",
      "type": "function"
    },
    {
      "inputs": [
        {
          "internalType": "uint256",
          "name": "",
          "type": "uint256"
        }
      ],
      "name": "memes",
      "outputs": [
        {
          "internalType": "uint256",
          "name": "tokenId",
          "type": "uint256"
        },
        {
          "internalType": "address",
          "name": "creator",
          "type": "address"
        },
        {
          "internalType": "string",
          "name": "memeURI",
          "type": "string"
        },
        {
          "internalType": "uint256",
          "name": "voteCount",
          "type": "uint256"
        },
        {
          "internalType": "bool",
          "name": "minted",
          "type": "bool"
        },
        {
          "internalType": "bool",
          "name": "submitted",
          "type": "bool"
        }
      ],
      "stateMutability": "view",
      "type": "function"
    },
    {
      "inputs": [
        {
          "internalType": "uint256",
          "name": "memeId",
          "type": "uint256"
        }
      ],
      "name": "mintMeme",
      "outputs": [],
      "stateMutability": "nonpayable",
      "type": "function"
    },
    {
      "inputs": [],
      "name": "mintingFee",
      "outputs": [
        {
          "internalType": "uint256",
          "name": "",
          "type": "uint256"
        }
      ],
      "stateMutability": "view",
      "type": "function"
    },
    {
      "inputs": [],
      "name": "name",
      "outputs": [
        {
          "internalType": "string",
          "name": "",
          "type": "string"
        }
      ],
      "stateMutability": "view",
      "type": "function"
    },
    {
      "inputs": [],
      "name": "nguToken",
      "outputs": [
        {
          "internalType": "contract IERC20",
          "name": "",
          "type": "address"
        }
      ],
      "stateMutability": "view",
      "type": "function"
    },
    {
      "inputs": [],
      "name": "owner",
      "outputs": [
        {
          "internalType": "address",
          "name": "",
          "type": "address"
        }
      ],
      "stateMutability": "view",
      "type": "function"
    },
    {
      "inputs": [
        {
          "internalType": "uint256",
          "name": "tokenId",
          "type": "uint256"
        }
      ],
      "name": "ownerOf",
      "outputs": [
        {
          "internalType": "address",
          "name": "",
          "type": "address"
        }
      ],
      "stateMutability": "view",
      "type": "function"
    },
    {
      "inputs": [
        {
          "internalType": "address",
          "name": "_user",
          "type": "address"
        }
      ],
      "name": "removeGalacticG",
      "outputs": [],
      "stateMutability": "nonpayable",
      "type": "function"
    },
    {
      "inputs": [],
      "name": "renounceOwnership",
      "outputs": [],
      "stateMutability": "nonpayable",
      "type": "function"
    },
    {
      "inputs": [
        {
          "internalType": "address",
          "name": "from",
          "type": "address"
        },
        {
          "internalType": "address",
          "name": "to",
          "type": "address"
        },
        {
          "internalType": "uint256",
          "name": "tokenId",
          "type": "uint256"
        }
      ],
      "name": "safeTransferFrom",
      "outputs": [],
      "stateMutability": "nonpayable",
      "type": "function"
    },
    {
      "inputs": [
        {
          "internalType": "address",
          "name": "from",
          "type": "address"
        },
        {
          "internalType": "address",
          "name": "to",
          "type": "address"
        },
        {
          "internalType": "uint256",
          "name": "tokenId",
          "type": "uint256"
        },
        {
          "internalType": "bytes",
          "name": "data",
          "type": "bytes"
        }
      ],
      "name": "safeTransferFrom",
      "outputs": [],
      "stateMutability": "nonpayable",
      "type": "function"
    },
    {
      "inputs": [
        {
          "internalType": "address",
          "name": "operator",
          "type": "address"
        },
        {
          "internalType": "bool",
          "name": "approved",
          "type": "bool"
        }
      ],
      "name": "setApprovalForAll",
      "outputs": [],
      "stateMutability": "nonpayable",
      "type": "function"
    },
    {
      "inputs": [
        {
          "internalType": "uint256",
          "name": "_creationFee",
          "type": "uint256"
        },
        {
          "internalType": "uint256",
          "name": "_mintingFee",
          "type": "uint256"
        },
        {
          "internalType": "uint256",
          "name": "_submissionFee",
          "type": "uint256"
        },
        {
          "internalType": "uint256",
          "name": "_voteFee",
          "type": "uint256"
        }
      ],
      "name": "setFees",
      "outputs": [],
      "stateMutability": "nonpayable",
      "type": "function"
    },
    {
      "inputs": [],
      "name": "submissionFee",
      "outputs": [
        {
          "internalType": "uint256",
          "name": "",
          "type": "uint256"
        }
      ],
      "stateMutability": "view",
      "type": "function"
    },
    {
      "inputs": [
        {
          "internalType": "string",
          "name": "memeURI",
          "type": "string"
        }
      ],
      "name": "submitMeme",
      "outputs": [],
      "stateMutability": "nonpayable",
      "type": "function"
    },
    {
      "inputs": [
        {
          "internalType": "bytes4",
          "name": "interfaceId",
          "type": "bytes4"
        }
      ],
      "name": "supportsInterface",
      "outputs": [
        {
          "internalType": "bool",
          "name": "",
          "type": "bool"
        }
      ],
      "stateMutability": "view",
      "type": "function"
    },
    {
      "inputs": [],
      "name": "symbol",
      "outputs": [
        {
          "internalType": "string",
          "name": "",
          "type": "string"
        }
      ],
      "stateMutability": "view",
      "type": "function"
    },
    {
      "inputs": [
        {
          "internalType": "uint256",
          "name": "tokenId",
          "type": "uint256"
        }
      ],
      "name": "tokenURI",
      "outputs": [
        {
          "internalType": "string",
          "name": "",
          "type": "string"
        }
      ],
      "stateMutability": "view",
      "type": "function"
    },
    {
      "inputs": [
        {
          "internalType": "address",
          "name": "from",
          "type": "address"
        },
        {
          "internalType": "address",
          "name": "to",
          "type": "address"
        },
        {
          "internalType": "uint256",
          "name": "tokenId",
          "type": "uint256"
        }
      ],
      "name": "transferFrom",
      "outputs": [],
      "stateMutability": "nonpayable",
      "type": "function"
    },
    {
      "inputs": [
        {
          "internalType": "address",
          "name": "newOwner",
          "type": "address"
        }
      ],
      "name": "transferOwnership",
      "outputs": [],
      "stateMutability": "nonpayable",
      "type": "function"
    },
    {
      "inputs": [],
      "name": "voteFee",
      "outputs": [
        {
          "internalType": "uint256",
          "name": "",
          "type": "uint256"
        }
      ],
      "stateMutability": "view",
      "type": "function"
    },
    {
      "inputs": [
        {
          "internalType": "uint256",
          "name": "memeId",
          "type": "uint256"
        }
      ],
      "name": "voteMeme",
      "outputs": [],
      "stateMutability": "nonpayable",
      "type": "function"
    },
    {
      "inputs": [
        {
          "internalType": "uint256",
          "name": "amount",
          "type": "uint256"
        }
      ],
      "name": "withdrawFees",
      "outputs": [],
      "stateMutability": "nonpayable",
      "type": "function"
    }
  ],
  "bytecode": "0x60806040523480156200001157600080fd5b50604051620043e3380380620043e3833981810160405281019062000037919062000321565b336040518060400160405280600881526020017f4e4755204d656d650000000000000000000000000000000000000000000000008152506040518060400160405280600481526020017f4e47554d000000000000000000000000000000000000000000000000000000008152508160009081620000b59190620005cd565b508060019081620000c79190620005cd565b505050600073ffffffffffffffffffffffffffffffffffffffff168173ffffffffffffffffffffffffffffffffffffffff16036200013f5760006040517f1e4fbdf7000000000000000000000000000000000000000000000000000000008152600401620001369190620006c5565b60405180910390fd5b6200015081620001dd60201b60201c565b5080600860006101000a81548173ffffffffffffffffffffffffffffffffffffffff021916908373ffffffffffffffffffffffffffffffffffffffff160217905550678ac7230489e80000600981905550674563918244f40000600a81905550671bc16d674ec80000600b81905550670de0b6b3a7640000600c819055506000600d8190555050620006e2565b6000600760009054906101000a900473ffffffffffffffffffffffffffffffffffffffff16905081600760006101000a81548173ffffffffffffffffffffffffffffffffffffffff021916908373ffffffffffffffffffffffffffffffffffffffff1602179055508173ffffffffffffffffffffffffffffffffffffffff168173ffffffffffffffffffffffffffffffffffffffff167f8be0079c531659141344cd1fd0a4f28419497f9722a3daafe3b4186f6b6457e060405160405180910390a35050565b600080fd5b600073ffffffffffffffffffffffffffffffffffffffff82169050919050565b6000620002d582620002a8565b9050919050565b6000620002e982620002c8565b9050919050565b620002fb81620002dc565b81146200030757600080fd5b50565b6000815190506200031b81620002f0565b92915050565b6000602082840312156200033a5762000339620002a3565b5b60006200034a848285016200030a565b91505092915050565b600081519050919050565b7f4e487b7100000000000000000000000000000000000000000000000000000000600052604160045260246000fd5b7f4e487b7100000000000000000000000000000000000000000000000000000000600052602260045260246000fd5b60006002820490506001821680620003d557607f821691505b602082108103620003eb57620003ea6200038d565b5b50919050565b60008190508160005260206000209050919050565b60006020601f8301049050919050565b600082821b905092915050565b600060088302620004557fffffffffffffffffffffffffffffffffffffffffffffffffffffffffffffffff8262000416565b62000461868362000416565b95508019841693508086168417925050509392505050565b6000819050919050565b6000819050919050565b6000620004ae620004a8620004a28462000479565b62000483565b62000479565b9050919050565b6000819050919050565b620004ca836200048d565b620004e2620004d982620004b5565b84845462000423565b825550505050565b600090565b620004f9620004ea565b62000506818484620004bf565b505050565b5b818110156200052e5762000522600082620004ef565b6001810190506200050c565b5050565b601f8211156200057d576200054781620003f1565b620005528462000406565b8101602085101562000562578190505b6200057a620005718562000406565b8301826200050b565b50505b505050565b600082821c905092915050565b6000620005a26000198460080262000582565b1980831691505092915050565b6000620005bd83836200058f565b9150826002028217905092915050565b620005d88262000353565b67ffffffffffffffff811115620005f457620005f36200035e565b5b620006008254620003bc565b6200060d82828562000532565b600060209050601f83116001811462000645576000841562000630578287015190505b6200063c8582620005af565b865550620006ac565b601f1984166200065586620003f1565b60005b828110156200067f5784890151825560018201915060208501945060208101905062000658565b868310156200069f57848901516200069b601f8916826200058f565b8355505b6001600288020188555050505b505050505050565b620006bf81620002c8565b82525050565b6000602082019050620006dc6000830184620006b4565b92915050565b613cf180620006f26000396000f3fe608060405234801561001057600080fd5b50600436106101ef5760003560e01c8063715018a61161010f578063c87b56dd116100a2578063e888894211610071578063e888894214610593578063e985e9c5146105b1578063eb3a9ef7146105e1578063f2fde38b146105fd576101ef565b8063c87b56dd1461050b578063da2b4c1e1461053b578063dc18560414610559578063dce0b4e414610575576101ef565b806395d89b41116100de57806395d89b4114610497578063a22cb465146104b5578063b24c4fa0146104d1578063b88d4fde146104ef576101ef565b8063715018a6146104375780637e39cb2b14610441578063867d60731461045d5780638da5cb5b14610479576101ef565b80632f5b6ffe116101875780635e318e07116101565780635e318e071461039f5780636352211e146103bb5780636fcba377146103eb57806370a0823114610407576101ef565b80632f5b6ffe14610300578063388f60641461033057806342842e0e146103655780635a64ad9514610381576101ef565b8063095ea7b3116101c3578063095ea7b314610290578063143ba4f3146102ac5780631809b5f5146102c857806323b872dd146102e4576101ef565b80629a9b7b146101f457806301ffc9a71461021257806306fdde0314610242578063081812fc14610260575b600080fd5b6101fc610619565b6040516102099190612aff565b60405180910390f35b61022c60048036038101906102279190612b86565b61061f565b6040516102399190612bce565b60405180910390f35b61024a610680565b6040516102579190612c79565b60405180910390f35b61027a60048036038101906102759190612cc7565b610712565b6040516102879190612d35565b60405180910390f35b6102aa60048036038101906102a59190612d7c565b61072e565b005b6102c660048036038101906102c19190612e77565b610744565b005b6102e260048036038101906102dd9190612ef8565b610976565b005b6102fe60048036038101906102f99190612f25565b6109d9565b005b61031a60048036038101906103159190612ef8565b610adb565b6040516103279190612bce565b60405180910390f35b61034a60048036038101906103459190612cc7565b610afb565b60405161035c96959493929190612f78565b60405180910390f35b61037f600480360381019061037a9190612f25565b610bf9565b005b610389610c19565b6040516103969190612aff565b60405180910390f35b6103b960048036038101906103b49190612cc7565b610c1f565b005b6103d560048036038101906103d09190612cc7565b610c7e565b6040516103e29190612d35565b60405180910390f35b61040560048036038101906104009190612fe0565b610c90565b005b610421600480360381019061041c9190612ef8565b610cba565b60405161042e9190612aff565b60405180910390f35b61043f610d74565b005b61045b6004803603810190610456919061309d565b610d88565b005b61047760048036038101906104729190612cc7565b61102d565b005b6104816111e5565b60405161048e9190612d35565b60405180910390f35b61049f61120f565b6040516104ac9190612c79565b60405180910390f35b6104cf60048036038101906104ca9190613116565b6112a1565b005b6104d96112b7565b6040516104e691906131b5565b60405180910390f35b61050960048036038101906105049190613300565b6112dd565b005b61052560048036038101906105209190612cc7565b611302565b6040516105329190612c79565b60405180910390f35b610543611415565b6040516105509190612aff565b60405180910390f35b610573600480360381019061056e9190612ef8565b61141b565b005b61057d61147e565b60405161058a9190612aff565b60405180910390f35b61059b611484565b6040516105a89190612aff565b60405180910390f35b6105cb60048036038101906105c69190613383565b61148a565b6040516105d89190612bce565b60405180910390f35b6105fb60048036038101906105f69190612cc7565b61151e565b005b61061760048036038101906106129190612ef8565b61184c565b005b600d5481565b6000634906490660e01b7bffffffffffffffffffffffffffffffffffffffffffffffffffffffff1916827bffffffffffffffffffffffffffffffffffffffffffffffffffffffff191614806106795750610678826118d2565b5b9050919050565b60606000805461068f906133f2565b80601f01602080910402602001604051908101604052809291908181526020018280546106bb906133f2565b80156107085780601f106106dd57610100808354040283529160200191610708565b820191906000526020600020905b8154815290600101906020018083116106eb57829003601f168201915b5050505050905090565b600061071d826119b4565b5061072782611a3c565b9050919050565b610740828261073b611a79565b611a81565b5050565b61074c611a93565b818190508484905014610794576040517f08c379a000000000000000000000000000000000000000000000000000000000815260040161078b9061346f565b60405180910390fd5b600080600090505b858590508110156107e1578383828181106107ba576107b961348f565b5b90506020020135826107cc91906134ed565b915080806107d990613521565b91505061079c565b5080600860009054906101000a900473ffffffffffffffffffffffffffffffffffffffff1673ffffffffffffffffffffffffffffffffffffffff166370a08231306040518263ffffffff1660e01b815260040161083e9190612d35565b602060405180830381865afa15801561085b573d6000803e3d6000fd5b505050506040513d601f19601f8201168201806040525081019061087f919061357e565b10156108c0576040517f08c379a00000000000000000000000000000000000000000000000000000000081526004016108b7906135f7565b60405180910390fd5b60005b8585905081101561096e5761095b8686838181106108e4576108e361348f565b5b90506020020160208101906108f99190612ef8565b85858481811061090c5761090b61348f565b5b90506020020135600860009054906101000a900473ffffffffffffffffffffffffffffffffffffffff1673ffffffffffffffffffffffffffffffffffffffff16611b1a9092919063ffffffff16565b808061096690613521565b9150506108c3565b505050505050565b61097e611a93565b6001600f60008373ffffffffffffffffffffffffffffffffffffffff1673ffffffffffffffffffffffffffffffffffffffff16815260200190815260200160002060006101000a81548160ff02191690831515021790555050565b600073ffffffffffffffffffffffffffffffffffffffff168273ffffffffffffffffffffffffffffffffffffffff1603610a4b5760006040517f64a0ae92000000000000000000000000000000000000000000000000000000008152600401610a429190612d35565b60405180910390fd5b6000610a5f8383610a5a611a79565b611b99565b90508373ffffffffffffffffffffffffffffffffffffffff168173ffffffffffffffffffffffffffffffffffffffff1614610ad5578382826040517f64283d7b000000000000000000000000000000000000000000000000000000008152600401610acc93929190613617565b60405180910390fd5b50505050565b600f6020528060005260406000206000915054906101000a900460ff1681565b600e6020528060005260406000206000915090508060000154908060010160009054906101000a900473ffffffffffffffffffffffffffffffffffffffff1690806002018054610b4a906133f2565b80601f0160208091040260200160405190810160405280929190818152602001828054610b76906133f2565b8015610bc35780601f10610b9857610100808354040283529160200191610bc3565b820191906000526020600020905b815481529060010190602001808311610ba657829003601f168201915b5050505050908060030154908060040160009054906101000a900460ff16908060040160019054906101000a900460ff16905086565b610c14838383604051806020016040528060008152506112dd565b505050565b600a5481565b610c27611a93565b610c7b610c326111e5565b82600860009054906101000a900473ffffffffffffffffffffffffffffffffffffffff1673ffffffffffffffffffffffffffffffffffffffff16611b1a9092919063ffffffff16565b50565b6000610c89826119b4565b9050919050565b610c98611a93565b8360098190555082600a8190555081600b8190555080600c8190555050505050565b60008073ffffffffffffffffffffffffffffffffffffffff168273ffffffffffffffffffffffffffffffffffffffff1603610d2d5760006040517f89c62b64000000000000000000000000000000000000000000000000000000008152600401610d249190612d35565b60405180910390fd5b600360008373ffffffffffffffffffffffffffffffffffffffff1673ffffffffffffffffffffffffffffffffffffffff168152602001908152602001600020549050919050565b610d7c611a93565b610d866000611db3565b565b600f60003373ffffffffffffffffffffffffffffffffffffffff1673ffffffffffffffffffffffffffffffffffffffff16815260200190815260200160002060009054906101000a900460ff16610e14576040517f08c379a0000000000000000000000000000000000000000000000000000000008152600401610e0b906136c0565b60405180910390fd5b610e653330600b54600860009054906101000a900473ffffffffffffffffffffffffffffffffffffffff1673ffffffffffffffffffffffffffffffffffffffff16611e79909392919063ffffffff16565b600d6000815480929190610e7890613521565b91905055506040518060c00160405280600d5481526020013373ffffffffffffffffffffffffffffffffffffffff16815260200183838080601f016020809104026020016040519081016040528093929190818152602001838380828437600081840152601f19601f8201169050808301925050505050505081526020016000815260200160001515815260200160011515815250600e6000600d5481526020019081526020016000206000820151816000015560208201518160010160006101000a81548173ffffffffffffffffffffffffffffffffffffffff021916908373ffffffffffffffffffffffffffffffffffffffff1602179055506040820151816002019081610f889190613882565b506060820151816003015560808201518160040160006101000a81548160ff02191690831515021790555060a08201518160040160016101000a81548160ff0219169083151502179055509050503373ffffffffffffffffffffffffffffffffffffffff16600d547f5a20ab1d9dc88654ce4b0ecd06dbbb66115f3e86cfe70f6717102bcae2a4a5c08484604051611021929190613981565b60405180910390a35050565b600f60003373ffffffffffffffffffffffffffffffffffffffff1673ffffffffffffffffffffffffffffffffffffffff16815260200190815260200160002060009054906101000a900460ff166110b9576040517f08c379a00000000000000000000000000000000000000000000000000000000081526004016110b0906136c0565b60405180910390fd5b61110a3330600c54600860009054906101000a900473ffffffffffffffffffffffffffffffffffffffff1673ffffffffffffffffffffffffffffffffffffffff16611e79909392919063ffffffff16565b6000600e600083815260200190815260200160002090508060040160019054906101000a900460ff16611172576040517f08c379a0000000000000000000000000000000000000000000000000000000008152600401611169906139f1565b60405180910390fd5b600181600301600082825461118791906134ed565b925050819055503373ffffffffffffffffffffffffffffffffffffffff16827f903d955ffc4c7d3ae887133f90927b5c2a5177cbe7af0c949b0bf110a86af0b183600301546040516111d99190612aff565b60405180910390a35050565b6000600760009054906101000a900473ffffffffffffffffffffffffffffffffffffffff16905090565b60606001805461121e906133f2565b80601f016020809104026020016040519081016040528092919081815260200182805461124a906133f2565b80156112975780601f1061126c57610100808354040283529160200191611297565b820191906000526020600020905b81548152906001019060200180831161127a57829003601f168201915b5050505050905090565b6112b36112ac611a79565b8383611efb565b5050565b600860009054906101000a900473ffffffffffffffffffffffffffffffffffffffff1681565b6112e88484846109d9565b6112fc6112f3611a79565b8585858561206a565b50505050565b606061130d826119b4565b50600060066000848152602001908152602001600020805461132e906133f2565b80601f016020809104026020016040519081016040528092919081815260200182805461135a906133f2565b80156113a75780601f1061137c576101008083540402835291602001916113a7565b820191906000526020600020905b81548152906001019060200180831161138a57829003601f168201915b5050505050905060006113b861221b565b905060008151036113cd578192505050611410565b6000825111156114025780826040516020016113ea929190613a4d565b60405160208183030381529060405292505050611410565b61140b84612232565b925050505b919050565b600c5481565b611423611a93565b6000600f60008373ffffffffffffffffffffffffffffffffffffffff1673ffffffffffffffffffffffffffffffffffffffff16815260200190815260200160002060006101000a81548160ff02191690831515021790555050565b60095481565b600b5481565b6000600560008473ffffffffffffffffffffffffffffffffffffffff1673ffffffffffffffffffffffffffffffffffffffff16815260200190815260200160002060008373ffffffffffffffffffffffffffffffffffffffff1673ffffffffffffffffffffffffffffffffffffffff16815260200190815260200160002060009054906101000a900460ff16905092915050565b600f60003373ffffffffffffffffffffffffffffffffffffffff1673ffffffffffffffffffffffffffffffffffffffff16815260200190815260200160002060009054906101000a900460ff166115aa576040517f08c379a00000000000000000000000000000000000000000000000000000000081526004016115a1906136c0565b60405180910390fd5b6000600e600083815260200190815260200160002090503373ffffffffffffffffffffffffffffffffffffffff168160010160009054906101000a900473ffffffffffffffffffffffffffffffffffffffff1673ffffffffffffffffffffffffffffffffffffffff1614611653576040517f08c379a000000000000000000000000000000000000000000000000000000000815260040161164a90613abd565b60405180910390fd5b8060040160019054906101000a900460ff166116a4576040517f08c379a000000000000000000000000000000000000000000000000000000000815260040161169b906139f1565b60405180910390fd5b8060040160009054906101000a900460ff16156116f6576040517f08c379a00000000000000000000000000000000000000000000000000000000081526004016116ed90613b29565b60405180910390fd5b6117473330600a54600860009054906101000a900473ffffffffffffffffffffffffffffffffffffffff1673ffffffffffffffffffffffffffffffffffffffff16611e79909392919063ffffffff16565b611751338361229b565b6117e782826002018054611764906133f2565b80601f0160208091040260200160405190810160405280929190818152602001828054611790906133f2565b80156117dd5780601f106117b2576101008083540402835291602001916117dd565b820191906000526020600020905b8154815290600101906020018083116117c057829003601f168201915b50505050506122b9565b60018160040160006101000a81548160ff0219169083151502179055503373ffffffffffffffffffffffffffffffffffffffff16827fb2ba4c72a840d1937561f5018e205ce84b4ee1fbafccfa1a2c56fed4b4faed5860405160405180910390a35050565b611854611a93565b600073ffffffffffffffffffffffffffffffffffffffff168173ffffffffffffffffffffffffffffffffffffffff16036118c65760006040517f1e4fbdf70000000000000000000000000000000000000000000000000000000081526004016118bd9190612d35565b60405180910390fd5b6118cf81611db3565b50565b60007f80ac58cd000000000000000000000000000000000000000000000000000000007bffffffffffffffffffffffffffffffffffffffffffffffffffffffff1916827bffffffffffffffffffffffffffffffffffffffffffffffffffffffff1916148061199d57507f5b5e139f000000000000000000000000000000000000000000000000000000007bffffffffffffffffffffffffffffffffffffffffffffffffffffffff1916827bffffffffffffffffffffffffffffffffffffffffffffffffffffffff1916145b806119ad57506119ac82612315565b5b9050919050565b6000806119c08361237f565b9050600073ffffffffffffffffffffffffffffffffffffffff168173ffffffffffffffffffffffffffffffffffffffff1603611a3357826040517f7e273289000000000000000000000000000000000000000000000000000000008152600401611a2a9190612aff565b60405180910390fd5b80915050919050565b60006004600083815260200190815260200160002060009054906101000a900473ffffffffffffffffffffffffffffffffffffffff169050919050565b600033905090565b611a8e83838360016123bc565b505050565b611a9b611a79565b73ffffffffffffffffffffffffffffffffffffffff16611ab96111e5565b73ffffffffffffffffffffffffffffffffffffffff1614611b1857611adc611a79565b6040517f118cdaa7000000000000000000000000000000000000000000000000000000008152600401611b0f9190612d35565b60405180910390fd5b565b611b94838473ffffffffffffffffffffffffffffffffffffffff1663a9059cbb8585604051602401611b4d929190613b49565b604051602081830303815290604052915060e01b6020820180517bffffffffffffffffffffffffffffffffffffffffffffffffffffffff8381831617835250505050612581565b505050565b600080611ba58461237f565b9050600073ffffffffffffffffffffffffffffffffffffffff168373ffffffffffffffffffffffffffffffffffffffff1614611be757611be6818486612623565b5b600073ffffffffffffffffffffffffffffffffffffffff168173ffffffffffffffffffffffffffffffffffffffff1614611c7857611c296000856000806123bc565b6001600360008373ffffffffffffffffffffffffffffffffffffffff1673ffffffffffffffffffffffffffffffffffffffff168152602001908152602001600020600082825403925050819055505b600073ffffffffffffffffffffffffffffffffffffffff168573ffffffffffffffffffffffffffffffffffffffff1614611cfb576001600360008773ffffffffffffffffffffffffffffffffffffffff1673ffffffffffffffffffffffffffffffffffffffff168152602001908152602001600020600082825401925050819055505b846002600086815260200190815260200160002060006101000a81548173ffffffffffffffffffffffffffffffffffffffff021916908373ffffffffffffffffffffffffffffffffffffffff160217905550838573ffffffffffffffffffffffffffffffffffffffff168273ffffffffffffffffffffffffffffffffffffffff167fddf252ad1be2c89b69c2b068fc378daa952ba7f163c4a11628f55a4df523b3ef60405160405180910390a4809150509392505050565b6000600760009054906101000a900473ffffffffffffffffffffffffffffffffffffffff16905081600760006101000a81548173ffffffffffffffffffffffffffffffffffffffff021916908373ffffffffffffffffffffffffffffffffffffffff1602179055508173ffffffffffffffffffffffffffffffffffffffff168173ffffffffffffffffffffffffffffffffffffffff167f8be0079c531659141344cd1fd0a4f28419497f9722a3daafe3b4186f6b6457e060405160405180910390a35050565b611ef5848573ffffffffffffffffffffffffffffffffffffffff166323b872dd868686604051602401611eae93929190613b72565b604051602081830303815290604052915060e01b6020820180517bffffffffffffffffffffffffffffffffffffffffffffffffffffffff8381831617835250505050612581565b50505050565b600073ffffffffffffffffffffffffffffffffffffffff168273ffffffffffffffffffffffffffffffffffffffff1603611f6c57816040517f5b08ba18000000000000000000000000000000000000000000000000000000008152600401611f639190612d35565b60405180910390fd5b80600560008573ffffffffffffffffffffffffffffffffffffffff1673ffffffffffffffffffffffffffffffffffffffff16815260200190815260200160002060008473ffffffffffffffffffffffffffffffffffffffff1673ffffffffffffffffffffffffffffffffffffffff16815260200190815260200160002060006101000a81548160ff0219169083151502179055508173ffffffffffffffffffffffffffffffffffffffff168373ffffffffffffffffffffffffffffffffffffffff167f17307eab39ab6107e8899845ad3d59bd9653f200f220920489ca2b5937696c318360405161205d9190612bce565b60405180910390a3505050565b60008373ffffffffffffffffffffffffffffffffffffffff163b1115612214578273ffffffffffffffffffffffffffffffffffffffff1663150b7a02868685856040518563ffffffff1660e01b81526004016120c99493929190613bfe565b6020604051808303816000875af192505050801561210557506040513d601f19601f820116820180604052508101906121029190613c5f565b60015b612189573d8060008114612135576040519150601f19603f3d011682016040523d82523d6000602084013e61213a565b606091505b50600081510361218157836040517f64a0ae920000000000000000000000000000000000000000000000000000000081526004016121789190612d35565b60405180910390fd5b805181602001fd5b63150b7a0260e01b7bffffffffffffffffffffffffffffffffffffffffffffffffffffffff1916817bffffffffffffffffffffffffffffffffffffffffffffffffffffffff19161461221257836040517f64a0ae920000000000000000000000000000000000000000000000000000000081526004016122099190612d35565b60405180910390fd5b505b5050505050565b606060405180602001604052806000815250905090565b606061223d826119b4565b50600061224861221b565b905060008151116122685760405180602001604052806000815250612293565b80612272846126e7565b604051602001612283929190613a4d565b6040516020818303038152906040525b915050919050565b6122b58282604051806020016040528060008152506127b5565b5050565b806006600084815260200190815260200160002090816122d99190613882565b507ff8e1a15aba9398e019f0b49df1a4fde98ee17ae345cb5f6b5e2c27f5033e8ce7826040516123099190612aff565b60405180910390a15050565b60007f01ffc9a7000000000000000000000000000000000000000000000000000000007bffffffffffffffffffffffffffffffffffffffffffffffffffffffff1916827bffffffffffffffffffffffffffffffffffffffffffffffffffffffff1916149050919050565b60006002600083815260200190815260200160002060009054906101000a900473ffffffffffffffffffffffffffffffffffffffff169050919050565b80806123f55750600073ffffffffffffffffffffffffffffffffffffffff168273ffffffffffffffffffffffffffffffffffffffff1614155b15612529576000612405846119b4565b9050600073ffffffffffffffffffffffffffffffffffffffff168373ffffffffffffffffffffffffffffffffffffffff161415801561247057508273ffffffffffffffffffffffffffffffffffffffff168173ffffffffffffffffffffffffffffffffffffffff1614155b80156124835750612481818461148a565b155b156124c557826040517fa9fbf51f0000000000000000000000000000000000000000000000000000000081526004016124bc9190612d35565b60405180910390fd5b811561252757838573ffffffffffffffffffffffffffffffffffffffff168273ffffffffffffffffffffffffffffffffffffffff167f8c5be1e5ebec7d5bd14f71427d1e84f3dd0314c0f7b2291e5b200ac8c7c3b92560405160405180910390a45b505b836004600085815260200190815260200160002060006101000a81548173ffffffffffffffffffffffffffffffffffffffff021916908373ffffffffffffffffffffffffffffffffffffffff16021790555050505050565b600080602060008451602086016000885af1806125a4576040513d6000823e3d81fd5b3d9250600051915050600082146125bf5760018114156125db565b60008473ffffffffffffffffffffffffffffffffffffffff163b145b1561261d57836040517f5274afe70000000000000000000000000000000000000000000000000000000081526004016126149190612d35565b60405180910390fd5b50505050565b61262e8383836127d9565b6126e257600073ffffffffffffffffffffffffffffffffffffffff168373ffffffffffffffffffffffffffffffffffffffff16036126a357806040517f7e27328900000000000000000000000000000000000000000000000000000000815260040161269a9190612aff565b60405180910390fd5b81816040517f177e802f0000000000000000000000000000000000000000000000000000000081526004016126d9929190613b49565b60405180910390fd5b505050565b6060600060016126f68461289a565b01905060008167ffffffffffffffff811115612715576127146131d5565b5b6040519080825280601f01601f1916602001820160405280156127475781602001600182028036833780820191505090505b509050600082602001820190505b6001156127aa578080600190039150507f3031323334353637383961626364656600000000000000000000000000000000600a86061a8153600a858161279e5761279d613c8c565b5b04945060008503612755575b819350505050919050565b6127bf83836129ed565b6127d46127ca611a79565b600085858561206a565b505050565b60008073ffffffffffffffffffffffffffffffffffffffff168373ffffffffffffffffffffffffffffffffffffffff161415801561289157508273ffffffffffffffffffffffffffffffffffffffff168473ffffffffffffffffffffffffffffffffffffffff1614806128525750612851848461148a565b5b8061289057508273ffffffffffffffffffffffffffffffffffffffff1661287883611a3c565b73ffffffffffffffffffffffffffffffffffffffff16145b5b90509392505050565b600080600090507a184f03e93ff9f4daa797ed6e38ed64bf6a1f01000000000000000083106128f8577a184f03e93ff9f4daa797ed6e38ed64bf6a1f01000000000000000083816128ee576128ed613c8c565b5b0492506040810190505b6d04ee2d6d415b85acef81000000008310612935576d04ee2d6d415b85acef8100000000838161292b5761292a613c8c565b5b0492506020810190505b662386f26fc10000831061296457662386f26fc10000838161295a57612959613c8c565b5b0492506010810190505b6305f5e100831061298d576305f5e100838161298357612982613c8c565b5b0492506008810190505b61271083106129b25761271083816129a8576129a7613c8c565b5b0492506004810190505b606483106129d557606483816129cb576129ca613c8c565b5b0492506002810190505b600a83106129e4576001810190505b80915050919050565b600073ffffffffffffffffffffffffffffffffffffffff168273ffffffffffffffffffffffffffffffffffffffff1603612a5f5760006040517f64a0ae92000000000000000000000000000000000000000000000000000000008152600401612a569190612d35565b60405180910390fd5b6000612a6d83836000611b99565b9050600073ffffffffffffffffffffffffffffffffffffffff168173ffffffffffffffffffffffffffffffffffffffff1614612ae15760006040517f73c6ac6e000000000000000000000000000000000000000000000000000000008152600401612ad89190612d35565b60405180910390fd5b505050565b6000819050919050565b612af981612ae6565b82525050565b6000602082019050612b146000830184612af0565b92915050565b6000604051905090565b600080fd5b600080fd5b60007fffffffff0000000000000000000000000000000000000000000000000000000082169050919050565b612b6381612b2e565b8114612b6e57600080fd5b50565b600081359050612b8081612b5a565b92915050565b600060208284031215612b9c57612b9b612b24565b5b6000612baa84828501612b71565b91505092915050565b60008115159050919050565b612bc881612bb3565b82525050565b6000602082019050612be36000830184612bbf565b92915050565b600081519050919050565b600082825260208201905092915050565b60005b83811015612c23578082015181840152602081019050612c08565b60008484015250505050565b6000601f19601f8301169050919050565b6000612c4b82612be9565b612c558185612bf4565b9350612c65818560208601612c05565b612c6e81612c2f565b840191505092915050565b60006020820190508181036000830152612c938184612c40565b905092915050565b612ca481612ae6565b8114612caf57600080fd5b50565b600081359050612cc181612c9b565b92915050565b600060208284031215612cdd57612cdc612b24565b5b6000612ceb84828501612cb2565b91505092915050565b600073ffffffffffffffffffffffffffffffffffffffff82169050919050565b6000612d1f82612cf4565b9050919050565b612d2f81612d14565b82525050565b6000602082019050612d4a6000830184612d26565b92915050565b612d5981612d14565b8114612d6457600080fd5b50565b600081359050612d7681612d50565b92915050565b60008060408385031215612d9357612d92612b24565b5b6000612da185828601612d67565b9250506020612db285828601612cb2565b9150509250929050565b600080fd5b600080fd5b600080fd5b60008083601f840112612de157612de0612dbc565b5b8235905067ffffffffffffffff811115612dfe57612dfd612dc1565b5b602083019150836020820283011115612e1a57612e19612dc6565b5b9250929050565b60008083601f840112612e3757612e36612dbc565b5b8235905067ffffffffffffffff811115612e5457612e53612dc1565b5b602083019150836020820283011115612e7057612e6f612dc6565b5b9250929050565b60008060008060408587031215612e9157612e90612b24565b5b600085013567ffffffffffffffff811115612eaf57612eae612b29565b5b612ebb87828801612dcb565b9450945050602085013567ffffffffffffffff811115612ede57612edd612b29565b5b612eea87828801612e21565b925092505092959194509250565b600060208284031215612f0e57612f0d612b24565b5b6000612f1c84828501612d67565b91505092915050565b600080600060608486031215612f3e57612f3d612b24565b5b6000612f4c86828701612d67565b9350506020612f5d86828701612d67565b9250506040612f6e86828701612cb2565b9150509250925092565b600060c082019050612f8d6000830189612af0565b612f9a6020830188612d26565b8181036040830152612fac8187612c40565b9050612fbb6060830186612af0565b612fc86080830185612bbf565b612fd560a0830184612bbf565b979650505050505050565b60008060008060808587031215612ffa57612ff9612b24565b5b600061300887828801612cb2565b945050602061301987828801612cb2565b935050604061302a87828801612cb2565b925050606061303b87828801612cb2565b91505092959194509250565b60008083601f84011261305d5761305c612dbc565b5b8235905067ffffffffffffffff81111561307a57613079612dc1565b5b60208301915083600182028301111561309657613095612dc6565b5b9250929050565b600080602083850312156130b4576130b3612b24565b5b600083013567ffffffffffffffff8111156130d2576130d1612b29565b5b6130de85828601613047565b92509250509250929050565b6130f381612bb3565b81146130fe57600080fd5b50565b600081359050613110816130ea565b92915050565b6000806040838503121561312d5761312c612b24565b5b600061313b85828601612d67565b925050602061314c85828601613101565b9150509250929050565b6000819050919050565b600061317b61317661317184612cf4565b613156565b612cf4565b9050919050565b600061318d82613160565b9050919050565b600061319f82613182565b9050919050565b6131af81613194565b82525050565b60006020820190506131ca60008301846131a6565b92915050565b600080fd5b7f4e487b7100000000000000000000000000000000000000000000000000000000600052604160045260246000fd5b61320d82612c2f565b810181811067ffffffffffffffff8211171561322c5761322b6131d5565b5b80604052505050565b600061323f612b1a565b905061324b8282613204565b919050565b600067ffffffffffffffff82111561326b5761326a6131d5565b5b61327482612c2f565b9050602081019050919050565b82818337600083830152505050565b60006132a361329e84613250565b613235565b9050828152602081018484840111156132bf576132be6131d0565b5b6132ca848285613281565b509392505050565b600082601f8301126132e7576132e6612dbc565b5b81356132f7848260208601613290565b91505092915050565b6000806000806080858703121561331a57613319612b24565b5b600061332887828801612d67565b945050602061333987828801612d67565b935050604061334a87828801612cb2565b925050606085013567ffffffffffffffff81111561336b5761336a612b29565b5b613377878288016132d2565b91505092959194509250565b6000806040838503121561339a57613399612b24565b5b60006133a885828601612d67565b92505060206133b985828601612d67565b9150509250929050565b7f4e487b7100000000000000000000000000000000000000000000000000000000600052602260045260246000fd5b6000600282049050600182168061340a57607f821691505b60208210810361341d5761341c6133c3565b5b50919050565b7f4d69736d617463686564206172726179206c656e677468730000000000000000600082015250565b6000613459601883612bf4565b915061346482613423565b602082019050919050565b600060208201905081810360008301526134888161344c565b9050919050565b7f4e487b7100000000000000000000000000000000000000000000000000000000600052603260045260246000fd5b7f4e487b7100000000000000000000000000000000000000000000000000000000600052601160045260246000fd5b60006134f882612ae6565b915061350383612ae6565b925082820190508082111561351b5761351a6134be565b5b92915050565b600061352c82612ae6565b91507fffffffffffffffffffffffffffffffffffffffffffffffffffffffffffffffff820361355e5761355d6134be565b5b600182019050919050565b60008151905061357881612c9b565b92915050565b60006020828403121561359457613593612b24565b5b60006135a284828501613569565b91505092915050565b7f496e73756666696369656e742062616c616e636520666f722072657761726473600082015250565b60006135e1602083612bf4565b91506135ec826135ab565b602082019050919050565b60006020820190508181036000830152613610816135d4565b9050919050565b600060608201905061362c6000830186612d26565b6136396020830185612af0565b6136466040830184612d26565b949350505050565b7f4f6e6c792047616c6163746963204720726f6c65206f776e65727320616c6c6f60008201527f7765640000000000000000000000000000000000000000000000000000000000602082015250565b60006136aa602383612bf4565b91506136b58261364e565b604082019050919050565b600060208201905081810360008301526136d98161369d565b9050919050565b60008190508160005260206000209050919050565b60006020601f8301049050919050565b600082821b905092915050565b6000600883026137427fffffffffffffffffffffffffffffffffffffffffffffffffffffffffffffffff82613705565b61374c8683613705565b95508019841693508086168417925050509392505050565b600061377f61377a61377584612ae6565b613156565b612ae6565b9050919050565b6000819050919050565b61379983613764565b6137ad6137a582613786565b848454613712565b825550505050565b600090565b6137c26137b5565b6137cd818484613790565b505050565b5b818110156137f1576137e66000826137ba565b6001810190506137d3565b5050565b601f82111561383657613807816136e0565b613810846136f5565b8101602085101561381f578190505b61383361382b856136f5565b8301826137d2565b50505b505050565b600082821c905092915050565b60006138596000198460080261383b565b1980831691505092915050565b60006138728383613848565b9150826002028217905092915050565b61388b82612be9565b67ffffffffffffffff8111156138a4576138a36131d5565b5b6138ae82546133f2565b6138b98282856137f5565b600060209050601f8311600181146138ec57600084156138da578287015190505b6138e48582613866565b86555061394c565b601f1984166138fa866136e0565b60005b82811015613922578489015182556001820191506020850194506020810190506138fd565b8683101561393f578489015161393b601f891682613848565b8355505b6001600288020188555050505b505050505050565b60006139608385612bf4565b935061396d838584613281565b61397683612c2f565b840190509392505050565b6000602082019050818103600083015261399c818486613954565b90509392505050565b7f4d656d65206e6f74207375626d69747465640000000000000000000000000000600082015250565b60006139db601283612bf4565b91506139e6826139a5565b602082019050919050565b60006020820190508181036000830152613a0a816139ce565b9050919050565b600081905092915050565b6000613a2782612be9565b613a318185613a11565b9350613a41818560208601612c05565b80840191505092915050565b6000613a598285613a1c565b9150613a658284613a1c565b91508190509392505050565b7f4f6e6c792063726561746f722063616e206d696e740000000000000000000000600082015250565b6000613aa7601583612bf4565b9150613ab282613a71565b602082019050919050565b60006020820190508181036000830152613ad681613a9a565b9050919050565b7f4d656d6520616c7265616479206d696e74656400000000000000000000000000600082015250565b6000613b13601383612bf4565b9150613b1e82613add565b602082019050919050565b60006020820190508181036000830152613b4281613b06565b9050919050565b6000604082019050613b5e6000830185612d26565b613b6b6020830184612af0565b9392505050565b6000606082019050613b876000830186612d26565b613b946020830185612d26565b613ba16040830184612af0565b949350505050565b600081519050919050565b600082825260208201905092915050565b6000613bd082613ba9565b613bda8185613bb4565b9350613bea818560208601612c05565b613bf381612c2f565b840191505092915050565b6000608082019050613c136000830187612d26565b613c206020830186612d26565b613c2d6040830185612af0565b8181036060830152613c3f8184613bc5565b905095945050505050565b600081519050613c5981612b5a565b92915050565b600060208284031215613c7557613c74612b24565b5b6000613c8384828501613c4a565b91505092915050565b7f4e487b7100000000000000000000000000000000000000000000000000000000600052601260045260246000fdfea26469706673582212206904fb05828c7846a54b24d4bbb4e2d865fe65dccc67ca86fa729add1055b4aa64736f6c63430008140033",
  "linkReferences": {},
  "deployedLinkReferences": {}
}