{
  "contractName": "MemeContest",
  "abi": [
    {
      "inputs": [
        {
          "internalType": "address",
          "name": "_sbtAddress",
          "type": "address"
        }
      ],
      "stateMutability": "nonpayable",
      "type": "constructor"
    },
    {
      "inputs": [
        {
          "internalType": "address",
          "name": "owner",
          "type": "address"
        }
      ],
      "name": "OwnableInvalidOwner",
      "type": "error"
    },
    {
      "inputs": [
        {
          "internalType": "address",
          "name": "account",
          "type": "address"
        }
      ],
      "name": "OwnableUnauthorizedAccount",
      "type": "error"
    },
    {
      "anonymous": false,
      "inputs": [
        {
          "indexed": true,
          "internalType": "uint256",
          "name": "memeId",
          "type": "uint256"
        },
        {
          "indexed": true,
          "internalType": "address",
          "name": "winner",
          "type": "address"
        }
      ],
      "name": "ContestWinner",
      "type": "event"
    },
    {
      "anonymous": false,
      "inputs": [
        {
          "indexed": true,
          "internalType": "uint256",
          "name": "tokenId",
          "type": "uint256"
        },
        {
          "indexed": true,
          "internalType": "address",
          "name": "creator",
          "type": "address"
        },
        {
          "indexed": false,
          "internalType": "string",
          "name": "ipfsHash",
          "type": "string"
        }
      ],
      "name": "MemeSubmitted",
      "type": "event"
    },
    {
      "anonymous": false,
      "inputs": [
        {
          "indexed": true,
          "internalType": "address",
          "name": "previousOwner",
          "type": "address"
        },
        {
          "indexed": true,
          "internalType": "address",
          "name": "newOwner",
          "type": "address"
        }
      ],
      "name": "OwnershipTransferred",
      "type": "event"
    },
    {
      "anonymous": false,
      "inputs": [
        {
          "indexed": true,
          "internalType": "uint256",
          "name": "memeId",
          "type": "uint256"
        },
        {
          "indexed": true,
          "internalType": "address",
          "name": "voter",
          "type": "address"
        },
        {
          "indexed": false,
          "internalType": "uint256",
          "name": "tokenId",
          "type": "uint256"
        }
      ],
      "name": "Voted",
      "type": "event"
    },
    {
      "inputs": [],
      "name": "CONTEST_DURATION",
      "outputs": [
        {
          "internalType": "uint256",
          "name": "",
          "type": "uint256"
        }
      ],
      "stateMutability": "view",
      "type": "function"
    },
    {
      "inputs": [],
      "name": "contestEndTime",
      "outputs": [
        {
          "internalType": "uint256",
          "name": "",
          "type": "uint256"
        }
      ],
      "stateMutability": "view",
      "type": "function"
    },
    {
      "inputs": [],
      "name": "contestStartTime",
      "outputs": [
        {
          "internalType": "uint256",
          "name": "",
          "type": "uint256"
        }
      ],
      "stateMutability": "view",
      "type": "function"
    },
    {
      "inputs": [
        {
          "internalType": "uint256",
          "name": "",
          "type": "uint256"
        }
      ],
      "name": "memes",
      "outputs": [
        {
          "internalType": "uint256",
          "name": "tokenId",
          "type": "uint256"
        },
        {
          "internalType": "string",
          "name": "ipfsHash",
          "type": "string"
        },
        {
          "internalType": "uint256",
          "name": "voteCount",
          "type": "uint256"
        },
        {
          "internalType": "bool",
          "name": "isWinner",
          "type": "bool"
        }
      ],
      "stateMutability": "view",
      "type": "function"
    },
    {
      "inputs": [],
      "name": "owner",
      "outputs": [
        {
          "internalType": "address",
          "name": "",
          "type": "address"
        }
      ],
      "stateMutability": "view",
      "type": "function"
    },
    {
      "inputs": [],
      "name": "renounceOwnership",
      "outputs": [],
      "stateMutability": "nonpayable",
      "type": "function"
    },
    {
      "inputs": [],
      "name": "sbtContract",
      "outputs": [
        {
          "internalType": "contract SoulBoundToken",
          "name": "",
          "type": "address"
        }
      ],
      "stateMutability": "view",
      "type": "function"
    },
    {
      "inputs": [
        {
          "internalType": "address",
          "name": "newOwner",
          "type": "address"
        }
      ],
      "name": "transferOwnership",
      "outputs": [],
      "stateMutability": "nonpayable",
      "type": "function"
    },
    {
      "inputs": [
        {
          "internalType": "address",
          "name": "",
          "type": "address"
        }
      ],
      "name": "votesCast",
      "outputs": [
        {
          "internalType": "uint256",
          "name": "",
          "type": "uint256"
        }
      ],
      "stateMutability": "view",
      "type": "function"
    },
    {
      "inputs": [
        {
          "internalType": "string",
          "name": "_ipfsHash",
          "type": "string"
        }
      ],
      "name": "submitMeme",
      "outputs": [],
      "stateMutability": "nonpayable",
      "type": "function"
    },
    {
      "inputs": [
        {
          "internalType": "uint256",
          "name": "_memeId",
          "type": "uint256"
        }
      ],
      "name": "voteForMeme",
      "outputs": [],
      "stateMutability": "nonpayable",
      "type": "function"
    },
    {
      "inputs": [],
      "name": "endContest",
      "outputs": [],
      "stateMutability": "nonpayable",
      "type": "function"
    }
  ],
  "bytecode": "0x608060405234801561000f575f80fd5b50604051610fb2380380610fb283398101604081905261002e916100e4565b338061005357604051631e4fbdf760e01b81525f600482015260240160405180910390fd5b61005c81610095565b50600180546001600160a01b0319166001600160a01b03831617905542600281905561008c9062093a8090610111565b60035550610136565b5f80546001600160a01b038381166001600160a01b0319831681178455604051919092169283917f8be0079c531659141344cd1fd0a4f28419497f9722a3daafe3b4186f6b6457e09190a35050565b5f602082840312156100f4575f80fd5b81516001600160a01b038116811461010a575f80fd5b9392505050565b8082018082111561013057634e487b7160e01b5f52601160045260245ffd5b92915050565b610e6f806101435f395ff3fe608060405234801561000f575f80fd5b50600436106100b1575f3560e01c80637e39cb2b1161006e5780637e39cb2b1461015c5780638da5cb5b1461016f57806396fe54181461017f57806397ab9e7a14610188578063c1ec478014610191578063f2fde38b14610199575f80fd5b806306158360146100b557806319aa21d0146100e5578063388f6064146100fa578063715018a61461011d57806372d662571461012557806379e170801461013d575b5f80fd5b6001546100c8906001600160a01b031681565b6040516001600160a01b0390911681526020015b60405180910390f35b6100f86100f3366004610adb565b6101ac565b005b61010d610108366004610adb565b61044e565b6040516100dc9493929190610b35565b6100f8610512565b61012f62093a8081565b6040519081526020016100dc565b61012f61014b366004610b79565b60056020525f908152604090205481565b6100f861016a366004610baf565b610525565b5f546001600160a01b03166100c8565b61012f60035481565b61012f60025481565b6100f8610780565b6100f86101a7366004610b79565b610910565b60035442106101f65760405162461bcd60e51b815260206004820152601160248201527010dbdb9d195cdd081a185cc8195b991959607a1b60448201526064015b60405180910390fd5b60045481106102395760405162461bcd60e51b815260206004820152600f60248201526e125b9d985b1a59081b595b59481251608a1b60448201526064016101ed565b6001546040516338ae52a160e11b81523360048201525f916001600160a01b03169063715ca54290602401602060405180830381865afa15801561027f573d5f803e3d5ffd5b505050506040513d601f19601f820116820180604052508101906102a39190610c5a565b6001546040516331a9108f60e11b81526004810183905291925033916001600160a01b0390911690636352211e90602401602060405180830381865afa1580156102ef573d5f803e3d5ffd5b505050506040513d601f19601f820116820180604052508101906103139190610c71565b6001600160a01b0316146103695760405162461bcd60e51b815260206004820152601a60248201527f53656e64657220646f6573206e6f74206f776e20616e2053425400000000000060448201526064016101ed565b335f908152600560205260409020546001116103b75760405162461bcd60e51b815260206004820152600d60248201526c105b1c9958591e481d9bdd1959609a1b60448201526064016101ed565b6001600483815481106103cc576103cc610c8c565b905f5260205f2090600402016002015f8282546103e99190610cb4565b9091555050335f90815260056020526040812080546001929061040d908490610cb4565b9091555050604051818152339083907f1abe610cf2bf87e57dcc1181fcf5ac0934e843d8344ab9eed6e86c799f62585e906020015b60405180910390a35050565b6004818154811061045d575f80fd5b5f918252602090912060049091020180546001820180549193509061048190610ccd565b80601f01602080910402602001604051908101604052809291908181526020018280546104ad90610ccd565b80156104f85780601f106104cf576101008083540402835291602001916104f8565b820191905f5260205f20905b8154815290600101906020018083116104db57829003601f168201915b50505050600283015460039093015491929160ff16905084565b61051a61094d565b6105235f610979565b565b600354421061056a5760405162461bcd60e51b815260206004820152601160248201527010dbdb9d195cdd081a185cc8195b991959607a1b60448201526064016101ed565b6001546040516338ae52a160e11b81523360048201525f916001600160a01b03169063715ca54290602401602060405180830381865afa1580156105b0573d5f803e3d5ffd5b505050506040513d601f19601f820116820180604052508101906105d49190610c5a565b6001546040516331a9108f60e11b81526004810183905291925033916001600160a01b0390911690636352211e90602401602060405180830381865afa158015610620573d5f803e3d5ffd5b505050506040513d601f19601f820116820180604052508101906106449190610c71565b6001600160a01b03161461069a5760405162461bcd60e51b815260206004820152601a60248201527f53656e64657220646f6573206e6f74206f776e20616e2053425400000000000060448201526064016101ed565b60408051608081018252828152602081018481525f928201839052606082018390526004805460018101825593819052825193027f8a35acfbc15ff81a39ae7d344fd709f28e8600b4aa8c65c6b64bfe7fe36bd19b810193845590519192917f8a35acfbc15ff81a39ae7d344fd709f28e8600b4aa8c65c6b64bfe7fe36bd19c909101906107289082610d53565b5060408281015160028301556060909201516003909101805460ff191691151591909117905551339082907f5a20ab1d9dc88654ce4b0ecd06dbbb66115f3e86cfe70f6717102bcae2a4a5c090610442908690610e0f565b61078861094d565b6003544210156107da5760405162461bcd60e51b815260206004820152601860248201527f436f6e74657374206973207374696c6c206f6e676f696e67000000000000000060448201526064016101ed565b5f6107e36109c8565b90506001600482815481106107fa576107fa610c8c565b5f91825260208220600491820201600301805460ff191693151593909317909255600154825491926001600160a01b0390911691636352211e91908590811061084557610845610c8c565b905f5260205f2090600402015f01546040518263ffffffff1660e01b815260040161087291815260200190565b602060405180830381865afa15801561088d573d5f803e3d5ffd5b505050506040513d601f19601f820116820180604052508101906108b19190610c71565b9050806001600160a01b0316827ffd0afc4d4c34b5afd95fd748e79063e95323b18022de5512800c1a7bae842ff060405160405180910390a34260028190556108fe9062093a8090610cb4565b60035561090c60045f610a43565b5050565b61091861094d565b6001600160a01b03811661094157604051631e4fbdf760e01b81525f60048201526024016101ed565b61094a81610979565b50565b5f546001600160a01b031633146105235760405163118cdaa760e01b81523360048201526024016101ed565b5f80546001600160a01b038381166001600160a01b0319831681178455604051919092169283917f8be0079c531659141344cd1fd0a4f28419497f9722a3daafe3b4186f6b6457e09190a35050565b5f8080805b600454811015610a3c5782600482815481106109eb576109eb610c8c565b905f5260205f209060040201600201541115610a2a5760048181548110610a1457610a14610c8c565b905f5260205f2090600402016002015492508091505b80610a3481610e21565b9150506109cd565b5092915050565b5080545f8255600402905f5260205f209081019061094a91905b80821115610a91575f808255610a766001830182610a95565b505f600282015560038101805460ff19169055600401610a5d565b5090565b508054610aa190610ccd565b5f825580601f10610ab0575050565b601f0160209004905f5260205f209081019061094a91905b80821115610a91575f8155600101610ac8565b5f60208284031215610aeb575f80fd5b5035919050565b5f81518084525f5b81811015610b1657602081850181015186830182015201610afa565b505f602082860101526020601f19601f83011685010191505092915050565b848152608060208201525f610b4d6080830186610af2565b60408301949094525090151560609091015292915050565b6001600160a01b038116811461094a575f80fd5b5f60208284031215610b89575f80fd5b8135610b9481610b65565b9392505050565b634e487b7160e01b5f52604160045260245ffd5b5f60208284031215610bbf575f80fd5b813567ffffffffffffffff80821115610bd6575f80fd5b818401915084601f830112610be9575f80fd5b813581811115610bfb57610bfb610b9b565b604051601f8201601f19908116603f01168101908382118183101715610c2357610c23610b9b565b81604052828152876020848701011115610c3b575f80fd5b826020860160208301375f928101602001929092525095945050505050565b5f60208284031215610c6a575f80fd5b5051919050565b5f60208284031215610c81575f80fd5b8151610b9481610b65565b634e487b7160e01b5f52603260045260245ffd5b634e487b7160e01b5f52601160045260245ffd5b80820180821115610cc757610cc7610ca0565b92915050565b600181811c90821680610ce157607f821691505b602082108103610cff57634e487b7160e01b5f52602260045260245ffd5b50919050565b601f821115610d4e575f81815260208120601f850160051c81016020861015610d2b5750805b601f850160051c820191505b81811015610d4a57828155600101610d37565b5050505b505050565b815167ffffffffffffffff811115610d6d57610d6d610b9b565b610d8181610d7b8454610ccd565b84610d05565b602080601f831160018114610db4575f8415610d9d5750858301515b5f19600386901b1c1916600185901b178555610d4a565b5f85815260208120601f198616915b82811015610de257888601518255948401946001909101908401610dc3565b5085821015610dff57878501515f19600388901b60f8161c191681555b5050505050600190811b01905550565b602081525f610b946020830184610af2565b5f60018201610e3257610e32610ca0565b506001019056fea26469706673582212200c19c39916cb659e1e2a12f85506f8d52718ec6ffb066227aad96f4de7952f8c64736f6c63430008140033",
  "immutableReferences": {},
  "source": "// SPDX-License-Identifier: MIT\npragma solidity ^0.8.20;\n\nimport \"@openzeppelin/contracts/access/Ownable.sol\";\nimport \"./SoulBoundToken.sol\";\n\ncontract MemeContest is Ownable {\n    SoulBoundToken public sbtContract;\n    uint256 public contestStartTime;\n    uint256 public contestEndTime;\n    uint256 public constant CONTEST_DURATION = 7 days;\n\n    struct Meme {\n        uint256 tokenId;\n        string ipfsHash;\n        uint256 voteCount;\n        bool isWinner;\n    }\n\n    Meme[] public memes;\n    mapping(address => uint256) public votesCast;\n\n    event MemeSubmitted(uint256 indexed tokenId, address indexed creator, string ipfsHash);\n    event Voted(uint256 indexed memeId, address indexed voter, uint256 tokenId);\n    event ContestWinner(uint256 indexed memeId, address indexed winner);\n\n    constructor(address _sbtAddress) Ownable(msg.sender) {\n        sbtContract = SoulBoundToken(_sbtAddress);\n        contestStartTime = block.timestamp;\n        contestEndTime = contestStartTime + CONTEST_DURATION;\n    }\n\n    function submitMeme(string memory _ipfsHash) public {\n        require(block.timestamp < contestEndTime, \"Contest has ended\");\n        uint256 tokenId = sbtContract.userTokenId(msg.sender);\n        require(sbtContract.ownerOf(tokenId) == msg.sender, \"Sender does not own an SBT\");\n        memes.push(Meme(tokenId, _ipfsHash, 0, false));\n        emit MemeSubmitted(tokenId, msg.sender, _ipfsHash);\n    }\n\n    function voteForMeme(uint256 _memeId) public {\n        require(block.timestamp < contestEndTime, \"Contest has ended\");\n        require(_memeId < memes.length, \"Invalid meme ID\");\n        uint256 tokenId = sbtContract.userTokenId(msg.sender);\n        require(sbtContract.ownerOf(tokenId) == msg.sender, \"Sender does not own an SBT\");\n        require(votesCast[msg.sender] < 1, \"Already voted\");\n        memes[_memeId].voteCount += 1;\n        votesCast[msg.sender] += 1;\n        emit Voted(_memeId, msg.sender, tokenId);\n    }\n\n    function endContest() public onlyOwner {\n        require(block.timestamp >= contestEndTime, \"Contest is still ongoing\");\n        uint256 winningMemeId = findWinningMeme();\n        memes[winningMemeId].isWinner = true;\n        address winner = sbtContract.ownerOf(memes[winningMemeId].tokenId);\n        emit ContestWinner(winningMemeId, winner);\n        contestStartTime = block.timestamp;\n        contestEndTime = contestStartTime + CONTEST_DURATION;\n        delete memes;\n    }\n\n    function findWinningMeme() internal view returns (uint256) {\n        uint256 maxVotes = 0;\n        uint256 winningId = 0;\n        for (uint256 i = 0; i < memes.length; i++) {\n            if (memes[i].voteCount > maxVotes) {\n                maxVotes = memes[i].voteCount;\n                winningId = i;\n            }\n        }\n        return winningId;\n    }\n}",
  "sourcePath": "/workspaces/GmoonNeverGiveUp/contracts/MemeContest.sol",
  "compiler": {
    "name": "solc",
    "version": "0.8.20+commit.a1b79de6.Emscripten.clang"
  },
  "schemaVersion": "3.4.16",
  "updatedAt": "2025-03-26T16:30:51.355Z",
  "devdoc": {
    "errors": {
      "OwnableInvalidOwner(address)": [
        {
          "details": "The owner is not a valid owner account. (eg. `address(0)`)"
        }
      ],
      "OwnableUnauthorizedAccount(address)": [
        {
          "details": "The caller account is not authorized to perform an operation."
        }
      ]
    },
    "kind": "dev",
    "methods": {
      "owner()": {
        "details": "Returns the address of the current owner."
      },
      "renounceOwnership()": {
        "details": "Leaves the contract without owner. It will not be possible to call `onlyOwner` functions. Can only be called by the current owner. NOTE: Renouncing ownership will leave the contract without an owner, thereby disabling any functionality that is only available to the owner."
      },
      "transferOwnership(address)": {
        "details": "Transfers ownership of the contract to a new account (`newOwner`). Can only be called by the current owner."
      }
    },
    "version": 1
  },
  "userdoc": {
    "kind": "user",
    "methods": {},
    "version": 1
  }
}