{
  "contractName": "MemeContest",
  "abi": [
    {
      "inputs": [
        {
          "internalType": "address",
          "name": "_sbtAddress",
          "type": "address"
        }
      ],
      "stateMutability": "nonpayable",
      "type": "constructor"
    },
    {
      "inputs": [
        {
          "internalType": "address",
          "name": "owner",
          "type": "address"
        }
      ],
      "name": "OwnableInvalidOwner",
      "type": "error"
    },
    {
      "inputs": [
        {
          "internalType": "address",
          "name": "account",
          "type": "address"
        }
      ],
      "name": "OwnableUnauthorizedAccount",
      "type": "error"
    },
    {
      "anonymous": false,
      "inputs": [
        {
          "indexed": true,
          "internalType": "uint256",
          "name": "memeId",
          "type": "uint256"
        },
        {
          "indexed": true,
          "internalType": "address",
          "name": "winner",
          "type": "address"
        }
      ],
      "name": "ContestWinner",
      "type": "event"
    },
    {
      "anonymous": false,
      "inputs": [
        {
          "indexed": true,
          "internalType": "uint256",
          "name": "tokenId",
          "type": "uint256"
        },
        {
          "indexed": true,
          "internalType": "address",
          "name": "creator",
          "type": "address"
        },
        {
          "indexed": false,
          "internalType": "string",
          "name": "ipfsHash",
          "type": "string"
        }
      ],
      "name": "MemeSubmitted",
      "type": "event"
    },
    {
      "anonymous": false,
      "inputs": [
        {
          "indexed": true,
          "internalType": "address",
          "name": "previousOwner",
          "type": "address"
        },
        {
          "indexed": true,
          "internalType": "address",
          "name": "newOwner",
          "type": "address"
        }
      ],
      "name": "OwnershipTransferred",
      "type": "event"
    },
    {
      "anonymous": false,
      "inputs": [
        {
          "indexed": true,
          "internalType": "uint256",
          "name": "memeId",
          "type": "uint256"
        },
        {
          "indexed": true,
          "internalType": "address",
          "name": "voter",
          "type": "address"
        },
        {
          "indexed": false,
          "internalType": "uint256",
          "name": "tokenId",
          "type": "uint256"
        }
      ],
      "name": "Voted",
      "type": "event"
    },
    {
      "inputs": [],
      "name": "CONTEST_DURATION",
      "outputs": [
        {
          "internalType": "uint256",
          "name": "",
          "type": "uint256"
        }
      ],
      "stateMutability": "view",
      "type": "function"
    },
    {
      "inputs": [],
      "name": "contestEndTime",
      "outputs": [
        {
          "internalType": "uint256",
          "name": "",
          "type": "uint256"
        }
      ],
      "stateMutability": "view",
      "type": "function"
    },
    {
      "inputs": [],
      "name": "contestStartTime",
      "outputs": [
        {
          "internalType": "uint256",
          "name": "",
          "type": "uint256"
        }
      ],
      "stateMutability": "view",
      "type": "function"
    },
    {
      "inputs": [
        {
          "internalType": "uint256",
          "name": "",
          "type": "uint256"
        }
      ],
      "name": "memes",
      "outputs": [
        {
          "internalType": "uint256",
          "name": "tokenId",
          "type": "uint256"
        },
        {
          "internalType": "string",
          "name": "ipfsHash",
          "type": "string"
        },
        {
          "internalType": "uint256",
          "name": "voteCount",
          "type": "uint256"
        },
        {
          "internalType": "bool",
          "name": "isWinner",
          "type": "bool"
        }
      ],
      "stateMutability": "view",
      "type": "function"
    },
    {
      "inputs": [],
      "name": "owner",
      "outputs": [
        {
          "internalType": "address",
          "name": "",
          "type": "address"
        }
      ],
      "stateMutability": "view",
      "type": "function"
    },
    {
      "inputs": [],
      "name": "renounceOwnership",
      "outputs": [],
      "stateMutability": "nonpayable",
      "type": "function"
    },
    {
      "inputs": [],
      "name": "sbtContract",
      "outputs": [
        {
          "internalType": "contract SoulBoundToken",
          "name": "",
          "type": "address"
        }
      ],
      "stateMutability": "view",
      "type": "function"
    },
    {
      "inputs": [
        {
          "internalType": "address",
          "name": "newOwner",
          "type": "address"
        }
      ],
      "name": "transferOwnership",
      "outputs": [],
      "stateMutability": "nonpayable",
      "type": "function"
    },
    {
      "inputs": [
        {
          "internalType": "address",
          "name": "",
          "type": "address"
        }
      ],
      "name": "votesCast",
      "outputs": [
        {
          "internalType": "uint256",
          "name": "",
          "type": "uint256"
        }
      ],
      "stateMutability": "view",
      "type": "function"
    },
    {
      "inputs": [
        {
          "internalType": "string",
          "name": "_ipfsHash",
          "type": "string"
        }
      ],
      "name": "submitMeme",
      "outputs": [],
      "stateMutability": "nonpayable",
      "type": "function"
    },
    {
      "inputs": [
        {
          "internalType": "uint256",
          "name": "_memeId",
          "type": "uint256"
        }
      ],
      "name": "voteForMeme",
      "outputs": [],
      "stateMutability": "nonpayable",
      "type": "function"
    },
    {
      "inputs": [],
      "name": "endContest",
      "outputs": [],
      "stateMutability": "nonpayable",
      "type": "function"
    }
  ],
  "bytecode": "0x608060405234801561000f575f80fd5b50604051610e39380380610e3983398101604081905261002e916100e4565b338061005357604051631e4fbdf760e01b81525f600482015260240160405180910390fd5b61005c81610095565b50600180546001600160a01b0319166001600160a01b03831617905542600281905561008c9062093a8090610111565b60035550610136565b5f80546001600160a01b038381166001600160a01b0319831681178455604051919092169283917f8be0079c531659141344cd1fd0a4f28419497f9722a3daafe3b4186f6b6457e09190a35050565b5f602082840312156100f4575f80fd5b81516001600160a01b038116811461010a575f80fd5b9392505050565b8082018082111561013057634e487b7160e01b5f52601160045260245ffd5b92915050565b610cf6806101435f395ff3fe608060405234801561000f575f80fd5b50600436106100b1575f3560e01c80637e39cb2b1161006e5780637e39cb2b1461015c5780638da5cb5b1461016f57806396fe54181461017f57806397ab9e7a14610188578063c1ec478014610191578063f2fde38b14610199575f80fd5b806306158360146100b557806319aa21d0146100e5578063388f6064146100fa578063715018a61461011d57806372d662571461012557806379e170801461013d575b5f80fd5b6001546100c8906001600160a01b031681565b6040516001600160a01b0390911681526020015b60405180910390f35b6100f86100f3366004610962565b6101ac565b005b61010d610108366004610962565b610392565b6040516100dc94939291906109bc565b6100f8610456565b61012f62093a8081565b6040519081526020016100dc565b61012f61014b366004610a00565b60056020525f908152604090205481565b6100f861016a366004610a36565b610469565b5f546001600160a01b03166100c8565b61012f60035481565b61012f60025481565b6100f8610607565b6100f86101a7366004610a00565b610797565b60035442106101f65760405162461bcd60e51b815260206004820152601160248201527010dbdb9d195cdd081a185cc8195b991959607a1b60448201526064015b60405180910390fd5b60045481106102395760405162461bcd60e51b815260206004820152600f60248201526e125b9d985b1a59081b595b59481251608a1b60448201526064016101ed565b600154604051632f745c5960e01b81523360048201525f60248201819052916001600160a01b031690632f745c5990604401602060405180830381865afa158015610286573d5f803e3d5ffd5b505050506040513d601f19601f820116820180604052508101906102aa9190610ae1565b335f908152600560205260409020549091506001116102fb5760405162461bcd60e51b815260206004820152600d60248201526c105b1c9958591e481d9bdd1959609a1b60448201526064016101ed565b60016004838154811061031057610310610af8565b905f5260205f2090600402016002015f82825461032d9190610b20565b9091555050335f908152600560205260408120805460019290610351908490610b20565b9091555050604051818152339083907f1abe610cf2bf87e57dcc1181fcf5ac0934e843d8344ab9eed6e86c799f62585e906020015b60405180910390a35050565b600481815481106103a1575f80fd5b5f91825260209091206004909102018054600182018054919350906103c590610b39565b80601f01602080910402602001604051908101604052809291908181526020018280546103f190610b39565b801561043c5780601f106104135761010080835404028352916020019161043c565b820191905f5260205f20905b81548152906001019060200180831161041f57829003601f168201915b50505050600283015460039093015491929160ff16905084565b61045e6107d4565b6104675f610800565b565b60035442106104ae5760405162461bcd60e51b815260206004820152601160248201527010dbdb9d195cdd081a185cc8195b991959607a1b60448201526064016101ed565b600154604051632f745c5960e01b81523360048201525f60248201819052916001600160a01b031690632f745c5990604401602060405180830381865afa1580156104fb573d5f803e3d5ffd5b505050506040513d601f19601f8201168201806040525081019061051f9190610ae1565b60408051608081018252828152602081018581525f928201839052606082018390526004805460018101825593819052825193027f8a35acfbc15ff81a39ae7d344fd709f28e8600b4aa8c65c6b64bfe7fe36bd19b8101938455905193945090927f8a35acfbc15ff81a39ae7d344fd709f28e8600b4aa8c65c6b64bfe7fe36bd19c909101906105af9082610bbf565b5060408281015160028301556060909201516003909101805460ff191691151591909117905551339082907f5a20ab1d9dc88654ce4b0ecd06dbbb66115f3e86cfe70f6717102bcae2a4a5c090610386908690610c7b565b61060f6107d4565b6003544210156106615760405162461bcd60e51b815260206004820152601860248201527f436f6e74657374206973207374696c6c206f6e676f696e67000000000000000060448201526064016101ed565b5f61066a61084f565b905060016004828154811061068157610681610af8565b5f91825260208220600491820201600301805460ff191693151593909317909255600154825491926001600160a01b0390911691636352211e9190859081106106cc576106cc610af8565b905f5260205f2090600402015f01546040518263ffffffff1660e01b81526004016106f991815260200190565b602060405180830381865afa158015610714573d5f803e3d5ffd5b505050506040513d601f19601f820116820180604052508101906107389190610c8d565b9050806001600160a01b0316827ffd0afc4d4c34b5afd95fd748e79063e95323b18022de5512800c1a7bae842ff060405160405180910390a34260028190556107859062093a8090610b20565b60035561079360045f6108ca565b5050565b61079f6107d4565b6001600160a01b0381166107c857604051631e4fbdf760e01b81525f60048201526024016101ed565b6107d181610800565b50565b5f546001600160a01b031633146104675760405163118cdaa760e01b81523360048201526024016101ed565b5f80546001600160a01b038381166001600160a01b0319831681178455604051919092169283917f8be0079c531659141344cd1fd0a4f28419497f9722a3daafe3b4186f6b6457e09190a35050565b5f8080805b6004548110156108c357826004828154811061087257610872610af8565b905f5260205f2090600402016002015411156108b1576004818154811061089b5761089b610af8565b905f5260205f2090600402016002015492508091505b806108bb81610ca8565b915050610854565b5092915050565b5080545f8255600402905f5260205f20908101906107d191905b80821115610918575f8082556108fd600183018261091c565b505f600282015560038101805460ff191690556004016108e4565b5090565b50805461092890610b39565b5f825580601f10610937575050565b601f0160209004905f5260205f20908101906107d191905b80821115610918575f815560010161094f565b5f60208284031215610972575f80fd5b5035919050565b5f81518084525f5b8181101561099d57602081850181015186830182015201610981565b505f602082860101526020601f19601f83011685010191505092915050565b848152608060208201525f6109d46080830186610979565b60408301949094525090151560609091015292915050565b6001600160a01b03811681146107d1575f80fd5b5f60208284031215610a10575f80fd5b8135610a1b816109ec565b9392505050565b634e487b7160e01b5f52604160045260245ffd5b5f60208284031215610a46575f80fd5b813567ffffffffffffffff80821115610a5d575f80fd5b818401915084601f830112610a70575f80fd5b813581811115610a8257610a82610a22565b604051601f8201601f19908116603f01168101908382118183101715610aaa57610aaa610a22565b81604052828152876020848701011115610ac2575f80fd5b826020860160208301375f928101602001929092525095945050505050565b5f60208284031215610af1575f80fd5b5051919050565b634e487b7160e01b5f52603260045260245ffd5b634e487b7160e01b5f52601160045260245ffd5b80820180821115610b3357610b33610b0c565b92915050565b600181811c90821680610b4d57607f821691505b602082108103610b6b57634e487b7160e01b5f52602260045260245ffd5b50919050565b601f821115610bba575f81815260208120601f850160051c81016020861015610b975750805b601f850160051c820191505b81811015610bb657828155600101610ba3565b5050505b505050565b815167ffffffffffffffff811115610bd957610bd9610a22565b610bed81610be78454610b39565b84610b71565b602080601f831160018114610c20575f8415610c095750858301515b5f19600386901b1c1916600185901b178555610bb6565b5f85815260208120601f198616915b82811015610c4e57888601518255948401946001909101908401610c2f565b5085821015610c6b57878501515f19600388901b60f8161c191681555b5050505050600190811b01905550565b602081525f610a1b6020830184610979565b5f60208284031215610c9d575f80fd5b8151610a1b816109ec565b5f60018201610cb957610cb9610b0c565b506001019056fea26469706673582212200042bacdc25118509a8207acbbb8b40521dd7ce34522c67a936239b14cafee8564736f6c63430008140033",
  "immutableReferences": {},
  "source": "// SPDX-License-Identifier: MIT\npragma solidity ^0.8.20;\n\nimport \"@openzeppelin/contracts/access/Ownable.sol\";\nimport \"./SoulBoundToken.sol\";\n\ncontract MemeContest is Ownable {\n    SoulBoundToken public sbtContract;\n    uint256 public contestStartTime;\n    uint256 public contestEndTime;\n    uint256 public constant CONTEST_DURATION = 7 days;\n\n    struct Meme {\n        uint256 tokenId;\n        string ipfsHash;\n        uint256 voteCount;\n        bool isWinner;\n    }\n\n    Meme[] public memes;\n    mapping(address => uint256) public votesCast; // Tracks votes per address\n\n    event MemeSubmitted(uint256 indexed tokenId, address indexed creator, string ipfsHash);\n    event Voted(uint256 indexed memeId, address indexed voter, uint256 tokenId);\n    event ContestWinner(uint256 indexed memeId, address indexed winner);\n\n    constructor(address _sbtAddress) Ownable(msg.sender) {\n        sbtContract = SoulBoundToken(_sbtAddress);\n        contestStartTime = block.timestamp;\n        contestEndTime = contestStartTime + CONTEST_DURATION;\n    }\n\n    function submitMeme(string memory _ipfsHash) public {\n        require(block.timestamp < contestEndTime, \"Contest has ended\");\n        uint256 tokenId = sbtContract.tokenOfOwnerByIndex(msg.sender, 0);\n        memes.push(Meme(tokenId, _ipfsHash, 0, false));\n        emit MemeSubmitted(tokenId, msg.sender, _ipfsHash);\n    }\n\n    function voteForMeme(uint256 _memeId) public {\n        require(block.timestamp < contestEndTime, \"Contest has ended\");\n        require(_memeId < memes.length, \"Invalid meme ID\");\n        uint256 tokenId = sbtContract.tokenOfOwnerByIndex(msg.sender, 0); // Now used in event\n        require(votesCast[msg.sender] < 1, \"Already voted\");\n        memes[_memeId].voteCount += 1;\n        votesCast[msg.sender] += 1;\n        emit Voted(_memeId, msg.sender, tokenId); // Updated to include tokenId\n    }\n\n    function endContest() public onlyOwner {\n        require(block.timestamp >= contestEndTime, \"Contest is still ongoing\");\n        uint256 winningMemeId = findWinningMeme();\n        memes[winningMemeId].isWinner = true;\n        address winner = sbtContract.ownerOf(memes[winningMemeId].tokenId);\n        emit ContestWinner(winningMemeId, winner);\n        contestStartTime = block.timestamp;\n        contestEndTime = contestStartTime + CONTEST_DURATION;\n        delete memes; // Reset for next contest\n    }\n\n    function findWinningMeme() internal view returns (uint256) {\n        uint256 maxVotes = 0;\n        uint256 winningId = 0;\n        for (uint256 i = 0; i < memes.length; i++) {\n            if (memes[i].voteCount > maxVotes) {\n                maxVotes = memes[i].voteCount;\n                winningId = i;\n            }\n        }\n        return winningId;\n    }\n}",
  "sourcePath": "/workspaces/GmoonNeverGiveUp/contracts/MemeContest.sol",
  "compiler": {
    "name": "solc",
    "version": "0.8.20+commit.a1b79de6.Emscripten.clang"
  },
  "schemaVersion": "3.4.16",
  "updatedAt": "2025-03-26T14:57:08.289Z",
  "devdoc": {
    "errors": {
      "OwnableInvalidOwner(address)": [
        {
          "details": "The owner is not a valid owner account. (eg. `address(0)`)"
        }
      ],
      "OwnableUnauthorizedAccount(address)": [
        {
          "details": "The caller account is not authorized to perform an operation."
        }
      ]
    },
    "kind": "dev",
    "methods": {
      "owner()": {
        "details": "Returns the address of the current owner."
      },
      "renounceOwnership()": {
        "details": "Leaves the contract without owner. It will not be possible to call `onlyOwner` functions. Can only be called by the current owner. NOTE: Renouncing ownership will leave the contract without an owner, thereby disabling any functionality that is only available to the owner."
      },
      "transferOwnership(address)": {
        "details": "Transfers ownership of the contract to a new account (`newOwner`). Can only be called by the current owner."
      }
    },
    "version": 1
  },
  "userdoc": {
    "kind": "user",
    "methods": {},
    "version": 1
  }
}