{
  "contractName": "SoulBoundToken",
  "abi": [
    {
      "inputs": [],
      "stateMutability": "nonpayable",
      "type": "constructor"
    },
    {
      "inputs": [
        {
          "internalType": "address",
          "name": "sender",
          "type": "address"
        },
        {
          "internalType": "uint256",
          "name": "tokenId",
          "type": "uint256"
        },
        {
          "internalType": "address",
          "name": "owner",
          "type": "address"
        }
      ],
      "name": "ERC721IncorrectOwner",
      "type": "error"
    },
    {
      "inputs": [
        {
          "internalType": "address",
          "name": "operator",
          "type": "address"
        },
        {
          "internalType": "uint256",
          "name": "tokenId",
          "type": "uint256"
        }
      ],
      "name": "ERC721InsufficientApproval",
      "type": "error"
    },
    {
      "inputs": [
        {
          "internalType": "address",
          "name": "approver",
          "type": "address"
        }
      ],
      "name": "ERC721InvalidApprover",
      "type": "error"
    },
    {
      "inputs": [
        {
          "internalType": "address",
          "name": "operator",
          "type": "address"
        }
      ],
      "name": "ERC721InvalidOperator",
      "type": "error"
    },
    {
      "inputs": [
        {
          "internalType": "address",
          "name": "owner",
          "type": "address"
        }
      ],
      "name": "ERC721InvalidOwner",
      "type": "error"
    },
    {
      "inputs": [
        {
          "internalType": "address",
          "name": "receiver",
          "type": "address"
        }
      ],
      "name": "ERC721InvalidReceiver",
      "type": "error"
    },
    {
      "inputs": [
        {
          "internalType": "address",
          "name": "sender",
          "type": "address"
        }
      ],
      "name": "ERC721InvalidSender",
      "type": "error"
    },
    {
      "inputs": [
        {
          "internalType": "uint256",
          "name": "tokenId",
          "type": "uint256"
        }
      ],
      "name": "ERC721NonexistentToken",
      "type": "error"
    },
    {
      "inputs": [
        {
          "internalType": "address",
          "name": "owner",
          "type": "address"
        }
      ],
      "name": "OwnableInvalidOwner",
      "type": "error"
    },
    {
      "inputs": [
        {
          "internalType": "address",
          "name": "account",
          "type": "address"
        }
      ],
      "name": "OwnableUnauthorizedAccount",
      "type": "error"
    },
    {
      "anonymous": false,
      "inputs": [
        {
          "indexed": true,
          "internalType": "address",
          "name": "owner",
          "type": "address"
        },
        {
          "indexed": true,
          "internalType": "address",
          "name": "approved",
          "type": "address"
        },
        {
          "indexed": true,
          "internalType": "uint256",
          "name": "tokenId",
          "type": "uint256"
        }
      ],
      "name": "Approval",
      "type": "event"
    },
    {
      "anonymous": false,
      "inputs": [
        {
          "indexed": true,
          "internalType": "address",
          "name": "owner",
          "type": "address"
        },
        {
          "indexed": true,
          "internalType": "address",
          "name": "operator",
          "type": "address"
        },
        {
          "indexed": false,
          "internalType": "bool",
          "name": "approved",
          "type": "bool"
        }
      ],
      "name": "ApprovalForAll",
      "type": "event"
    },
    {
      "anonymous": false,
      "inputs": [
        {
          "indexed": true,
          "internalType": "address",
          "name": "previousOwner",
          "type": "address"
        },
        {
          "indexed": true,
          "internalType": "address",
          "name": "newOwner",
          "type": "address"
        }
      ],
      "name": "OwnershipTransferred",
      "type": "event"
    },
    {
      "anonymous": false,
      "inputs": [
        {
          "indexed": true,
          "internalType": "address",
          "name": "from",
          "type": "address"
        },
        {
          "indexed": true,
          "internalType": "address",
          "name": "to",
          "type": "address"
        },
        {
          "indexed": true,
          "internalType": "uint256",
          "name": "tokenId",
          "type": "uint256"
        }
      ],
      "name": "Transfer",
      "type": "event"
    },
    {
      "inputs": [
        {
          "internalType": "address",
          "name": "to",
          "type": "address"
        },
        {
          "internalType": "uint256",
          "name": "tokenId",
          "type": "uint256"
        }
      ],
      "name": "approve",
      "outputs": [],
      "stateMutability": "nonpayable",
      "type": "function"
    },
    {
      "inputs": [
        {
          "internalType": "address",
          "name": "owner",
          "type": "address"
        }
      ],
      "name": "balanceOf",
      "outputs": [
        {
          "internalType": "uint256",
          "name": "",
          "type": "uint256"
        }
      ],
      "stateMutability": "view",
      "type": "function"
    },
    {
      "inputs": [
        {
          "internalType": "uint256",
          "name": "tokenId",
          "type": "uint256"
        }
      ],
      "name": "getApproved",
      "outputs": [
        {
          "internalType": "address",
          "name": "",
          "type": "address"
        }
      ],
      "stateMutability": "view",
      "type": "function"
    },
    {
      "inputs": [
        {
          "internalType": "address",
          "name": "owner",
          "type": "address"
        },
        {
          "internalType": "address",
          "name": "operator",
          "type": "address"
        }
      ],
      "name": "isApprovedForAll",
      "outputs": [
        {
          "internalType": "bool",
          "name": "",
          "type": "bool"
        }
      ],
      "stateMutability": "view",
      "type": "function"
    },
    {
      "inputs": [],
      "name": "name",
      "outputs": [
        {
          "internalType": "string",
          "name": "",
          "type": "string"
        }
      ],
      "stateMutability": "view",
      "type": "function"
    },
    {
      "inputs": [],
      "name": "owner",
      "outputs": [
        {
          "internalType": "address",
          "name": "",
          "type": "address"
        }
      ],
      "stateMutability": "view",
      "type": "function"
    },
    {
      "inputs": [
        {
          "internalType": "uint256",
          "name": "tokenId",
          "type": "uint256"
        }
      ],
      "name": "ownerOf",
      "outputs": [
        {
          "internalType": "address",
          "name": "",
          "type": "address"
        }
      ],
      "stateMutability": "view",
      "type": "function"
    },
    {
      "inputs": [],
      "name": "renounceOwnership",
      "outputs": [],
      "stateMutability": "nonpayable",
      "type": "function"
    },
    {
      "inputs": [
        {
          "internalType": "uint256",
          "name": "",
          "type": "uint256"
        }
      ],
      "name": "reputationPoints",
      "outputs": [
        {
          "internalType": "uint256",
          "name": "",
          "type": "uint256"
        }
      ],
      "stateMutability": "view",
      "type": "function"
    },
    {
      "inputs": [
        {
          "internalType": "address",
          "name": "from",
          "type": "address"
        },
        {
          "internalType": "address",
          "name": "to",
          "type": "address"
        },
        {
          "internalType": "uint256",
          "name": "tokenId",
          "type": "uint256"
        }
      ],
      "name": "safeTransferFrom",
      "outputs": [],
      "stateMutability": "nonpayable",
      "type": "function"
    },
    {
      "inputs": [
        {
          "internalType": "address",
          "name": "from",
          "type": "address"
        },
        {
          "internalType": "address",
          "name": "to",
          "type": "address"
        },
        {
          "internalType": "uint256",
          "name": "tokenId",
          "type": "uint256"
        },
        {
          "internalType": "bytes",
          "name": "data",
          "type": "bytes"
        }
      ],
      "name": "safeTransferFrom",
      "outputs": [],
      "stateMutability": "nonpayable",
      "type": "function"
    },
    {
      "inputs": [
        {
          "internalType": "address",
          "name": "operator",
          "type": "address"
        },
        {
          "internalType": "bool",
          "name": "approved",
          "type": "bool"
        }
      ],
      "name": "setApprovalForAll",
      "outputs": [],
      "stateMutability": "nonpayable",
      "type": "function"
    },
    {
      "inputs": [
        {
          "internalType": "bytes4",
          "name": "interfaceId",
          "type": "bytes4"
        }
      ],
      "name": "supportsInterface",
      "outputs": [
        {
          "internalType": "bool",
          "name": "",
          "type": "bool"
        }
      ],
      "stateMutability": "view",
      "type": "function"
    },
    {
      "inputs": [],
      "name": "symbol",
      "outputs": [
        {
          "internalType": "string",
          "name": "",
          "type": "string"
        }
      ],
      "stateMutability": "view",
      "type": "function"
    },
    {
      "inputs": [
        {
          "internalType": "uint256",
          "name": "tokenId",
          "type": "uint256"
        }
      ],
      "name": "tokenURI",
      "outputs": [
        {
          "internalType": "string",
          "name": "",
          "type": "string"
        }
      ],
      "stateMutability": "view",
      "type": "function"
    },
    {
      "inputs": [
        {
          "internalType": "address",
          "name": "from",
          "type": "address"
        },
        {
          "internalType": "address",
          "name": "to",
          "type": "address"
        },
        {
          "internalType": "uint256",
          "name": "tokenId",
          "type": "uint256"
        }
      ],
      "name": "transferFrom",
      "outputs": [],
      "stateMutability": "nonpayable",
      "type": "function"
    },
    {
      "inputs": [
        {
          "internalType": "address",
          "name": "newOwner",
          "type": "address"
        }
      ],
      "name": "transferOwnership",
      "outputs": [],
      "stateMutability": "nonpayable",
      "type": "function"
    },
    {
      "inputs": [
        {
          "internalType": "address",
          "name": "to",
          "type": "address"
        }
      ],
      "name": "mint",
      "outputs": [],
      "stateMutability": "nonpayable",
      "type": "function"
    },
    {
      "inputs": [
        {
          "internalType": "uint256",
          "name": "tokenId",
          "type": "uint256"
        },
        {
          "internalType": "uint256",
          "name": "points",
          "type": "uint256"
        }
      ],
      "name": "updateReputation",
      "outputs": [],
      "stateMutability": "nonpayable",
      "type": "function"
    },
    {
      "inputs": [
        {
          "internalType": "address",
          "name": "user",
          "type": "address"
        }
      ],
      "name": "userTokenId",
      "outputs": [
        {
          "internalType": "uint256",
          "name": "",
          "type": "uint256"
        }
      ],
      "stateMutability": "pure",
      "type": "function"
    }
  ],
  "bytecode": "0x608060405234801562000010575f80fd5b50336040518060400160405280601481526020017f4e475520536f756c20426f756e6420546f6b656e000000000000000000000000815250604051806040016040528060068152602001651391d554d09560d21b815250815f9081620000779190620001ba565b506001620000868282620001ba565b5050506001600160a01b038116620000b757604051631e4fbdf760e01b81525f600482015260240160405180910390fd5b620000c281620000c9565b5062000282565b600680546001600160a01b038381166001600160a01b0319831681179093556040519116919082907f8be0079c531659141344cd1fd0a4f28419497f9722a3daafe3b4186f6b6457e0905f90a35050565b634e487b7160e01b5f52604160045260245ffd5b600181811c908216806200014357607f821691505b6020821081036200016257634e487b7160e01b5f52602260045260245ffd5b50919050565b601f821115620001b5575f81815260208120601f850160051c81016020861015620001905750805b601f850160051c820191505b81811015620001b1578281556001016200019c565b5050505b505050565b81516001600160401b03811115620001d657620001d66200011a565b620001ee81620001e784546200012e565b8462000168565b602080601f83116001811462000224575f84156200020c5750858301515b5f19600386901b1c1916600185901b178555620001b1565b5f85815260208120601f198616915b82811015620002545788860151825594840194600190910190840162000233565b50858210156200027257878501515f19600388901b60f8161c191681555b5050505050600190811b01905550565b6112f280620002905f395ff3fe608060405234801561000f575f80fd5b5060043610610127575f3560e01c806370a08231116100a9578063a22cb4651161006e578063a22cb465146102b5578063b88d4fde146102c8578063c87b56dd146102db578063e985e9c5146102ee578063f2fde38b14610301575f80fd5b806370a0823114610234578063715018a614610247578063715ca5421461024f5780638da5cb5b1461029c57806395d89b41146102ad575f80fd5b806323b872dd116100ef57806323b872dd146101bb5780632cda4bb3146101ce57806342842e0e146101fb5780636352211e1461020e5780636a62784214610221575f80fd5b806301ffc9a71461012b5780630675f7631461015357806306fdde0314610168578063081812fc1461017d578063095ea7b3146101a8575b5f80fd5b61013e610139366004610f47565b610314565b60405190151581526020015b60405180910390f35b610166610161366004610f62565b610365565b005b6101706103ef565b60405161014a9190610fcf565b61019061018b366004610fe1565b61047e565b6040516001600160a01b03909116815260200161014a565b6101666101b6366004611013565b6104a5565b6101666101c936600461103b565b6104b4565b6101ed6101dc366004610fe1565b60076020525f908152604090205481565b60405190815260200161014a565b61016661020936600461103b565b61053d565b61019061021c366004610fe1565b61055c565b61016661022f366004611074565b610566565b6101ed610242366004611074565b610621565b610166610666565b6101ed61025d366004611074565b6040516bffffffffffffffffffffffff19606083901b1660208201525f9060340160408051601f19818403018152919052805160209091012092915050565b6006546001600160a01b0316610190565b610170610679565b6101666102c336600461108d565b610688565b6101666102d63660046110da565b610693565b6101706102e9366004610fe1565b6106ab565b61013e6102fc3660046111af565b61071c565b61016661030f366004611074565b610749565b5f6001600160e01b031982166380ac58cd60e01b148061034457506001600160e01b03198216635b5e139f60e01b145b8061035f57506301ffc9a760e01b6001600160e01b03198316145b92915050565b61036d610786565b5f6103778361055c565b6001600160a01b0316036103c95760405162461bcd60e51b8152602060048201526014602482015273151bdad95b88191bd95cc81b9bdd08195e1a5cdd60621b60448201526064015b60405180910390fd5b5f82815260076020526040812080548392906103e69084906111e0565b90915550505050565b60605f80546103fd906111ff565b80601f0160208091040260200160405190810160405280929190818152602001828054610429906111ff565b80156104745780601f1061044b57610100808354040283529160200191610474565b820191905f5260205f20905b81548152906001019060200180831161045757829003601f168201915b5050505050905090565b5f610488826107b3565b505f828152600460205260409020546001600160a01b031661035f565b6104b08282336107eb565b5050565b6001600160a01b0382166104dd57604051633250574960e11b81525f60048201526024016103c0565b5f6104e98383336107f8565b9050836001600160a01b0316816001600160a01b031614610537576040516364283d7b60e01b81526001600160a01b03808616600483015260248201849052821660448201526064016103c0565b50505050565b61055783838360405180602001604052805f815250610693565b505050565b5f61035f826107b3565b61056e610786565b6040516bffffffffffffffffffffffff19606083901b1660208201525f9060340160408051601f19818403018152919052805160209091012090505f6105b38261055c565b6001600160a01b0316146106175760405162461bcd60e51b815260206004820152602560248201527f546f6b656e20616c7265616479206d696e74656420666f722074686973206164604482015264647265737360d81b60648201526084016103c0565b6104b08282610895565b5f6001600160a01b03821661064b576040516322718ad960e21b81525f60048201526024016103c0565b506001600160a01b03165f9081526003602052604090205490565b61066e610786565b6106775f6108f6565b565b6060600180546103fd906111ff565b6104b0338383610947565b61069e8484846104b4565b61053733858585856109e5565b60606106b6826107b3565b505f6106cc60408051602081019091525f815290565b90505f8151116106ea5760405180602001604052805f815250610715565b806106f484610b0d565b604051602001610705929190611237565b6040516020818303038152906040525b9392505050565b6001600160a01b039182165f90815260056020908152604080832093909416825291909152205460ff1690565b610751610786565b6001600160a01b03811661077a57604051631e4fbdf760e01b81525f60048201526024016103c0565b610783816108f6565b50565b6006546001600160a01b031633146106775760405163118cdaa760e01b81523360048201526024016103c0565b5f818152600260205260408120546001600160a01b03168061035f57604051637e27328960e01b8152600481018490526024016103c0565b6105578383836001610b9d565b5f828152600260205260408120546001600160a01b031680158061082357506001600160a01b038516155b6108815760405162461bcd60e51b815260206004820152602960248201527f536f756c426f756e64546f6b656e3a20546f6b656e206973206e6f6e2d7472616044820152686e7366657261626c6560b81b60648201526084016103c0565b61088c858585610ca1565b95945050505050565b6001600160a01b0382166108be57604051633250574960e11b81525f60048201526024016103c0565b5f6108ca83835f6107f8565b90506001600160a01b03811615610557576040516339e3563760e11b81525f60048201526024016103c0565b600680546001600160a01b038381166001600160a01b0319831681179093556040519116919082907f8be0079c531659141344cd1fd0a4f28419497f9722a3daafe3b4186f6b6457e0905f90a35050565b6001600160a01b03821661097957604051630b61174360e31b81526001600160a01b03831660048201526024016103c0565b6001600160a01b038381165f81815260056020908152604080832094871680845294825291829020805460ff191686151590811790915591519182527f17307eab39ab6107e8899845ad3d59bd9653f200f220920489ca2b5937696c31910160405180910390a3505050565b6001600160a01b0383163b15610b0657604051630a85bd0160e11b81526001600160a01b0384169063150b7a0290610a27908890889087908790600401611265565b6020604051808303815f875af1925050508015610a61575060408051601f3d908101601f19168201909252610a5e918101906112a1565b60015b610ac8573d808015610a8e576040519150601f19603f3d011682016040523d82523d5f602084013e610a93565b606091505b5080515f03610ac057604051633250574960e11b81526001600160a01b03851660048201526024016103c0565b805181602001fd5b6001600160e01b03198116630a85bd0160e11b14610b0457604051633250574960e11b81526001600160a01b03851660048201526024016103c0565b505b5050505050565b60605f610b1983610d93565b60010190505f8167ffffffffffffffff811115610b3857610b386110c6565b6040519080825280601f01601f191660200182016040528015610b62576020820181803683370190505b5090508181016020015b5f19016f181899199a1a9b1b9c1cb0b131b232b360811b600a86061a8153600a8504945084610b6c57509392505050565b8080610bb157506001600160a01b03821615155b15610c72575f610bc0846107b3565b90506001600160a01b03831615801590610bec5750826001600160a01b0316816001600160a01b031614155b8015610bff5750610bfd818461071c565b155b15610c285760405163a9fbf51f60e01b81526001600160a01b03841660048201526024016103c0565b8115610c705783856001600160a01b0316826001600160a01b03167f8c5be1e5ebec7d5bd14f71427d1e84f3dd0314c0f7b2291e5b200ac8c7c3b92560405160405180910390a45b505b50505f90815260046020526040902080546001600160a01b0319166001600160a01b0392909216919091179055565b5f828152600260205260408120546001600160a01b0390811690831615610ccd57610ccd818486610e6a565b6001600160a01b03811615610d0757610ce85f855f80610b9d565b6001600160a01b0381165f90815260036020526040902080545f190190555b6001600160a01b03851615610d35576001600160a01b0385165f908152600360205260409020805460010190555b5f8481526002602052604080822080546001600160a01b0319166001600160a01b0389811691821790925591518793918516917fddf252ad1be2c89b69c2b068fc378daa952ba7f163c4a11628f55a4df523b3ef91a4949350505050565b5f8072184f03e93ff9f4daa797ed6e38ed64bf6a1f0160401b8310610dd15772184f03e93ff9f4daa797ed6e38ed64bf6a1f0160401b830492506040015b6d04ee2d6d415b85acef81000000008310610dfd576d04ee2d6d415b85acef8100000000830492506020015b662386f26fc100008310610e1b57662386f26fc10000830492506010015b6305f5e1008310610e33576305f5e100830492506008015b6127108310610e4757612710830492506004015b60648310610e59576064830492506002015b600a831061035f5760010192915050565b610e75838383610ece565b610557576001600160a01b038316610ea357604051637e27328960e01b8152600481018290526024016103c0565b60405163177e802f60e01b81526001600160a01b0383166004820152602481018290526044016103c0565b5f6001600160a01b03831615801590610f2a5750826001600160a01b0316846001600160a01b03161480610f075750610f07848461071c565b80610f2a57505f828152600460205260409020546001600160a01b038481169116145b949350505050565b6001600160e01b031981168114610783575f80fd5b5f60208284031215610f57575f80fd5b813561071581610f32565b5f8060408385031215610f73575f80fd5b50508035926020909101359150565b5f5b83811015610f9c578181015183820152602001610f84565b50505f910152565b5f8151808452610fbb816020860160208601610f82565b601f01601f19169290920160200192915050565b602081525f6107156020830184610fa4565b5f60208284031215610ff1575f80fd5b5035919050565b80356001600160a01b038116811461100e575f80fd5b919050565b5f8060408385031215611024575f80fd5b61102d83610ff8565b946020939093013593505050565b5f805f6060848603121561104d575f80fd5b61105684610ff8565b925061106460208501610ff8565b9150604084013590509250925092565b5f60208284031215611084575f80fd5b61071582610ff8565b5f806040838503121561109e575f80fd5b6110a783610ff8565b9150602083013580151581146110bb575f80fd5b809150509250929050565b634e487b7160e01b5f52604160045260245ffd5b5f805f80608085870312156110ed575f80fd5b6110f685610ff8565b935061110460208601610ff8565b925060408501359150606085013567ffffffffffffffff80821115611127575f80fd5b818701915087601f83011261113a575f80fd5b81358181111561114c5761114c6110c6565b604051601f8201601f19908116603f01168101908382118183101715611174576111746110c6565b816040528281528a602084870101111561118c575f80fd5b826020860160208301375f60208483010152809550505050505092959194509250565b5f80604083850312156111c0575f80fd5b6111c983610ff8565b91506111d760208401610ff8565b90509250929050565b8082018082111561035f57634e487b7160e01b5f52601160045260245ffd5b600181811c9082168061121357607f821691505b60208210810361123157634e487b7160e01b5f52602260045260245ffd5b50919050565b5f8351611248818460208801610f82565b83519083019061125c818360208801610f82565b01949350505050565b6001600160a01b03858116825284166020820152604081018390526080606082018190525f9061129790830184610fa4565b9695505050505050565b5f602082840312156112b1575f80fd5b815161071581610f3256fea2646970667358221220c3d680c2d8ad26b7915a25181ca2d28a9f596e4e2ad1843cf3478fc3451eaf2764736f6c63430008140033",
  "immutableReferences": {},
  "source": "// SPDX-License-Identifier: MIT\npragma solidity ^0.8.20;\n\nimport \"@openzeppelin/contracts/token/ERC721/ERC721.sol\";\nimport \"@openzeppelin/contracts/access/Ownable.sol\";\n\ncontract SoulBoundToken is ERC721, Ownable {\n    mapping(uint256 => uint256) public reputationPoints;\n\n    constructor() ERC721(\"NGU Soul Bound Token\", \"NGUSBT\") Ownable(msg.sender) {\n        // No storage writes\n    }\n\n    function mint(address to) public onlyOwner {\n        uint256 tokenId = uint256(keccak256(abi.encodePacked(to)));\n        require(ownerOf(tokenId) == address(0), \"Token already minted for this address\");\n        _mint(to, tokenId);\n    }\n\n    function updateReputation(uint256 tokenId, uint256 points) public onlyOwner {\n        require(ownerOf(tokenId) != address(0), \"Token does not exist\");\n        reputationPoints[tokenId] += points;\n    }\n\n    function _update(address to, uint256 tokenId, address auth) internal override returns (address) {\n        address from = _ownerOf(tokenId);\n        require(from == address(0) || to == address(0), \"SoulBoundToken: Token is non-transferable\");\n        return super._update(to, tokenId, auth);\n    }\n\n    // Updated to 'pure' as it does not read from state.\n    function userTokenId(address user) public pure returns (uint256) {\n        return uint256(keccak256(abi.encodePacked(user)));\n    }\n}\n",
  "sourcePath": "/workspaces/GmoonNeverGiveUp/contracts/SoulBoundToken.sol",
  "compiler": {
    "name": "solc",
    "version": "0.8.20+commit.a1b79de6.Emscripten.clang"
  },
  "schemaVersion": "3.4.16",
  "updatedAt": "2025-03-26T16:30:51.361Z",
  "devdoc": {
    "errors": {
      "ERC721IncorrectOwner(address,uint256,address)": [
        {
          "details": "Indicates an error related to the ownership over a particular token. Used in transfers.",
          "params": {
            "owner": "Address of the current owner of a token.",
            "sender": "Address whose tokens are being transferred.",
            "tokenId": "Identifier number of a token."
          }
        }
      ],
      "ERC721InsufficientApproval(address,uint256)": [
        {
          "details": "Indicates a failure with the `operator`s approval. Used in transfers.",
          "params": {
            "operator": "Address that may be allowed to operate on tokens without being their owner.",
            "tokenId": "Identifier number of a token."
          }
        }
      ],
      "ERC721InvalidApprover(address)": [
        {
          "details": "Indicates a failure with the `approver` of a token to be approved. Used in approvals.",
          "params": {
            "approver": "Address initiating an approval operation."
          }
        }
      ],
      "ERC721InvalidOperator(address)": [
        {
          "details": "Indicates a failure with the `operator` to be approved. Used in approvals.",
          "params": {
            "operator": "Address that may be allowed to operate on tokens without being their owner."
          }
        }
      ],
      "ERC721InvalidOwner(address)": [
        {
          "details": "Indicates that an address can't be an owner. For example, `address(0)` is a forbidden owner in ERC-20. Used in balance queries.",
          "params": {
            "owner": "Address of the current owner of a token."
          }
        }
      ],
      "ERC721InvalidReceiver(address)": [
        {
          "details": "Indicates a failure with the token `receiver`. Used in transfers.",
          "params": {
            "receiver": "Address to which tokens are being transferred."
          }
        }
      ],
      "ERC721InvalidSender(address)": [
        {
          "details": "Indicates a failure with the token `sender`. Used in transfers.",
          "params": {
            "sender": "Address whose tokens are being transferred."
          }
        }
      ],
      "ERC721NonexistentToken(uint256)": [
        {
          "details": "Indicates a `tokenId` whose `owner` is the zero address.",
          "params": {
            "tokenId": "Identifier number of a token."
          }
        }
      ],
      "OwnableInvalidOwner(address)": [
        {
          "details": "The owner is not a valid owner account. (eg. `address(0)`)"
        }
      ],
      "OwnableUnauthorizedAccount(address)": [
        {
          "details": "The caller account is not authorized to perform an operation."
        }
      ]
    },
    "events": {
      "Approval(address,address,uint256)": {
        "details": "Emitted when `owner` enables `approved` to manage the `tokenId` token."
      },
      "ApprovalForAll(address,address,bool)": {
        "details": "Emitted when `owner` enables or disables (`approved`) `operator` to manage all of its assets."
      },
      "Transfer(address,address,uint256)": {
        "details": "Emitted when `tokenId` token is transferred from `from` to `to`."
      }
    },
    "kind": "dev",
    "methods": {
      "approve(address,uint256)": {
        "details": "See {IERC721-approve}."
      },
      "balanceOf(address)": {
        "details": "See {IERC721-balanceOf}."
      },
      "getApproved(uint256)": {
        "details": "See {IERC721-getApproved}."
      },
      "isApprovedForAll(address,address)": {
        "details": "See {IERC721-isApprovedForAll}."
      },
      "name()": {
        "details": "See {IERC721Metadata-name}."
      },
      "owner()": {
        "details": "Returns the address of the current owner."
      },
      "ownerOf(uint256)": {
        "details": "See {IERC721-ownerOf}."
      },
      "renounceOwnership()": {
        "details": "Leaves the contract without owner. It will not be possible to call `onlyOwner` functions. Can only be called by the current owner. NOTE: Renouncing ownership will leave the contract without an owner, thereby disabling any functionality that is only available to the owner."
      },
      "safeTransferFrom(address,address,uint256)": {
        "details": "See {IERC721-safeTransferFrom}."
      },
      "safeTransferFrom(address,address,uint256,bytes)": {
        "details": "See {IERC721-safeTransferFrom}."
      },
      "setApprovalForAll(address,bool)": {
        "details": "See {IERC721-setApprovalForAll}."
      },
      "supportsInterface(bytes4)": {
        "details": "See {IERC165-supportsInterface}."
      },
      "symbol()": {
        "details": "See {IERC721Metadata-symbol}."
      },
      "tokenURI(uint256)": {
        "details": "See {IERC721Metadata-tokenURI}."
      },
      "transferFrom(address,address,uint256)": {
        "details": "See {IERC721-transferFrom}."
      },
      "transferOwnership(address)": {
        "details": "Transfers ownership of the contract to a new account (`newOwner`). Can only be called by the current owner."
      }
    },
    "version": 1
  },
  "userdoc": {
    "kind": "user",
    "methods": {},
    "version": 1
  }
}