{
  "contractName": "SoulBoundToken",
  "abi": [
    {
      "inputs": [],
      "stateMutability": "nonpayable",
      "type": "constructor"
    },
    {
      "inputs": [],
      "name": "ERC721EnumerableForbiddenBatchMint",
      "type": "error"
    },
    {
      "inputs": [
        {
          "internalType": "address",
          "name": "sender",
          "type": "address"
        },
        {
          "internalType": "uint256",
          "name": "tokenId",
          "type": "uint256"
        },
        {
          "internalType": "address",
          "name": "owner",
          "type": "address"
        }
      ],
      "name": "ERC721IncorrectOwner",
      "type": "error"
    },
    {
      "inputs": [
        {
          "internalType": "address",
          "name": "operator",
          "type": "address"
        },
        {
          "internalType": "uint256",
          "name": "tokenId",
          "type": "uint256"
        }
      ],
      "name": "ERC721InsufficientApproval",
      "type": "error"
    },
    {
      "inputs": [
        {
          "internalType": "address",
          "name": "approver",
          "type": "address"
        }
      ],
      "name": "ERC721InvalidApprover",
      "type": "error"
    },
    {
      "inputs": [
        {
          "internalType": "address",
          "name": "operator",
          "type": "address"
        }
      ],
      "name": "ERC721InvalidOperator",
      "type": "error"
    },
    {
      "inputs": [
        {
          "internalType": "address",
          "name": "owner",
          "type": "address"
        }
      ],
      "name": "ERC721InvalidOwner",
      "type": "error"
    },
    {
      "inputs": [
        {
          "internalType": "address",
          "name": "receiver",
          "type": "address"
        }
      ],
      "name": "ERC721InvalidReceiver",
      "type": "error"
    },
    {
      "inputs": [
        {
          "internalType": "address",
          "name": "sender",
          "type": "address"
        }
      ],
      "name": "ERC721InvalidSender",
      "type": "error"
    },
    {
      "inputs": [
        {
          "internalType": "uint256",
          "name": "tokenId",
          "type": "uint256"
        }
      ],
      "name": "ERC721NonexistentToken",
      "type": "error"
    },
    {
      "inputs": [
        {
          "internalType": "address",
          "name": "owner",
          "type": "address"
        },
        {
          "internalType": "uint256",
          "name": "index",
          "type": "uint256"
        }
      ],
      "name": "ERC721OutOfBoundsIndex",
      "type": "error"
    },
    {
      "inputs": [
        {
          "internalType": "address",
          "name": "owner",
          "type": "address"
        }
      ],
      "name": "OwnableInvalidOwner",
      "type": "error"
    },
    {
      "inputs": [
        {
          "internalType": "address",
          "name": "account",
          "type": "address"
        }
      ],
      "name": "OwnableUnauthorizedAccount",
      "type": "error"
    },
    {
      "anonymous": false,
      "inputs": [
        {
          "indexed": true,
          "internalType": "address",
          "name": "owner",
          "type": "address"
        },
        {
          "indexed": true,
          "internalType": "address",
          "name": "approved",
          "type": "address"
        },
        {
          "indexed": true,
          "internalType": "uint256",
          "name": "tokenId",
          "type": "uint256"
        }
      ],
      "name": "Approval",
      "type": "event"
    },
    {
      "anonymous": false,
      "inputs": [
        {
          "indexed": true,
          "internalType": "address",
          "name": "owner",
          "type": "address"
        },
        {
          "indexed": true,
          "internalType": "address",
          "name": "operator",
          "type": "address"
        },
        {
          "indexed": false,
          "internalType": "bool",
          "name": "approved",
          "type": "bool"
        }
      ],
      "name": "ApprovalForAll",
      "type": "event"
    },
    {
      "anonymous": false,
      "inputs": [
        {
          "indexed": true,
          "internalType": "address",
          "name": "previousOwner",
          "type": "address"
        },
        {
          "indexed": true,
          "internalType": "address",
          "name": "newOwner",
          "type": "address"
        }
      ],
      "name": "OwnershipTransferred",
      "type": "event"
    },
    {
      "anonymous": false,
      "inputs": [
        {
          "indexed": true,
          "internalType": "address",
          "name": "from",
          "type": "address"
        },
        {
          "indexed": true,
          "internalType": "address",
          "name": "to",
          "type": "address"
        },
        {
          "indexed": true,
          "internalType": "uint256",
          "name": "tokenId",
          "type": "uint256"
        }
      ],
      "name": "Transfer",
      "type": "event"
    },
    {
      "inputs": [
        {
          "internalType": "address",
          "name": "to",
          "type": "address"
        },
        {
          "internalType": "uint256",
          "name": "tokenId",
          "type": "uint256"
        }
      ],
      "name": "approve",
      "outputs": [],
      "stateMutability": "nonpayable",
      "type": "function"
    },
    {
      "inputs": [
        {
          "internalType": "address",
          "name": "owner",
          "type": "address"
        }
      ],
      "name": "balanceOf",
      "outputs": [
        {
          "internalType": "uint256",
          "name": "",
          "type": "uint256"
        }
      ],
      "stateMutability": "view",
      "type": "function"
    },
    {
      "inputs": [
        {
          "internalType": "uint256",
          "name": "tokenId",
          "type": "uint256"
        }
      ],
      "name": "getApproved",
      "outputs": [
        {
          "internalType": "address",
          "name": "",
          "type": "address"
        }
      ],
      "stateMutability": "view",
      "type": "function"
    },
    {
      "inputs": [
        {
          "internalType": "address",
          "name": "owner",
          "type": "address"
        },
        {
          "internalType": "address",
          "name": "operator",
          "type": "address"
        }
      ],
      "name": "isApprovedForAll",
      "outputs": [
        {
          "internalType": "bool",
          "name": "",
          "type": "bool"
        }
      ],
      "stateMutability": "view",
      "type": "function"
    },
    {
      "inputs": [],
      "name": "name",
      "outputs": [
        {
          "internalType": "string",
          "name": "",
          "type": "string"
        }
      ],
      "stateMutability": "view",
      "type": "function"
    },
    {
      "inputs": [],
      "name": "owner",
      "outputs": [
        {
          "internalType": "address",
          "name": "",
          "type": "address"
        }
      ],
      "stateMutability": "view",
      "type": "function"
    },
    {
      "inputs": [
        {
          "internalType": "uint256",
          "name": "tokenId",
          "type": "uint256"
        }
      ],
      "name": "ownerOf",
      "outputs": [
        {
          "internalType": "address",
          "name": "",
          "type": "address"
        }
      ],
      "stateMutability": "view",
      "type": "function"
    },
    {
      "inputs": [],
      "name": "renounceOwnership",
      "outputs": [],
      "stateMutability": "nonpayable",
      "type": "function"
    },
    {
      "inputs": [
        {
          "internalType": "uint256",
          "name": "",
          "type": "uint256"
        }
      ],
      "name": "reputationPoints",
      "outputs": [
        {
          "internalType": "uint256",
          "name": "",
          "type": "uint256"
        }
      ],
      "stateMutability": "view",
      "type": "function"
    },
    {
      "inputs": [
        {
          "internalType": "address",
          "name": "from",
          "type": "address"
        },
        {
          "internalType": "address",
          "name": "to",
          "type": "address"
        },
        {
          "internalType": "uint256",
          "name": "tokenId",
          "type": "uint256"
        }
      ],
      "name": "safeTransferFrom",
      "outputs": [],
      "stateMutability": "nonpayable",
      "type": "function"
    },
    {
      "inputs": [
        {
          "internalType": "address",
          "name": "from",
          "type": "address"
        },
        {
          "internalType": "address",
          "name": "to",
          "type": "address"
        },
        {
          "internalType": "uint256",
          "name": "tokenId",
          "type": "uint256"
        },
        {
          "internalType": "bytes",
          "name": "data",
          "type": "bytes"
        }
      ],
      "name": "safeTransferFrom",
      "outputs": [],
      "stateMutability": "nonpayable",
      "type": "function"
    },
    {
      "inputs": [
        {
          "internalType": "address",
          "name": "operator",
          "type": "address"
        },
        {
          "internalType": "bool",
          "name": "approved",
          "type": "bool"
        }
      ],
      "name": "setApprovalForAll",
      "outputs": [],
      "stateMutability": "nonpayable",
      "type": "function"
    },
    {
      "inputs": [],
      "name": "symbol",
      "outputs": [
        {
          "internalType": "string",
          "name": "",
          "type": "string"
        }
      ],
      "stateMutability": "view",
      "type": "function"
    },
    {
      "inputs": [
        {
          "internalType": "uint256",
          "name": "index",
          "type": "uint256"
        }
      ],
      "name": "tokenByIndex",
      "outputs": [
        {
          "internalType": "uint256",
          "name": "",
          "type": "uint256"
        }
      ],
      "stateMutability": "view",
      "type": "function"
    },
    {
      "inputs": [
        {
          "internalType": "address",
          "name": "owner",
          "type": "address"
        },
        {
          "internalType": "uint256",
          "name": "index",
          "type": "uint256"
        }
      ],
      "name": "tokenOfOwnerByIndex",
      "outputs": [
        {
          "internalType": "uint256",
          "name": "",
          "type": "uint256"
        }
      ],
      "stateMutability": "view",
      "type": "function"
    },
    {
      "inputs": [
        {
          "internalType": "uint256",
          "name": "tokenId",
          "type": "uint256"
        }
      ],
      "name": "tokenURI",
      "outputs": [
        {
          "internalType": "string",
          "name": "",
          "type": "string"
        }
      ],
      "stateMutability": "view",
      "type": "function"
    },
    {
      "inputs": [],
      "name": "totalSupply",
      "outputs": [
        {
          "internalType": "uint256",
          "name": "",
          "type": "uint256"
        }
      ],
      "stateMutability": "view",
      "type": "function"
    },
    {
      "inputs": [
        {
          "internalType": "address",
          "name": "from",
          "type": "address"
        },
        {
          "internalType": "address",
          "name": "to",
          "type": "address"
        },
        {
          "internalType": "uint256",
          "name": "tokenId",
          "type": "uint256"
        }
      ],
      "name": "transferFrom",
      "outputs": [],
      "stateMutability": "nonpayable",
      "type": "function"
    },
    {
      "inputs": [
        {
          "internalType": "address",
          "name": "newOwner",
          "type": "address"
        }
      ],
      "name": "transferOwnership",
      "outputs": [],
      "stateMutability": "nonpayable",
      "type": "function"
    },
    {
      "inputs": [
        {
          "internalType": "address",
          "name": "to",
          "type": "address"
        }
      ],
      "name": "mint",
      "outputs": [],
      "stateMutability": "nonpayable",
      "type": "function"
    },
    {
      "inputs": [
        {
          "internalType": "uint256",
          "name": "tokenId",
          "type": "uint256"
        },
        {
          "internalType": "uint256",
          "name": "points",
          "type": "uint256"
        }
      ],
      "name": "updateReputation",
      "outputs": [],
      "stateMutability": "nonpayable",
      "type": "function"
    },
    {
      "inputs": [
        {
          "internalType": "bytes4",
          "name": "interfaceId",
          "type": "bytes4"
        }
      ],
      "name": "supportsInterface",
      "outputs": [
        {
          "internalType": "bool",
          "name": "",
          "type": "bool"
        }
      ],
      "stateMutability": "view",
      "type": "function"
    }
  ],
  "bytecode": "0x608060405234801562000010575f80fd5b50336040518060400160405280601481526020017f4e475520536f756c20426f756e6420546f6b656e000000000000000000000000815250604051806040016040528060068152602001651391d554d09560d21b815250815f9081620000779190620001be565b506001620000868282620001be565b5050506001600160a01b038116620000b757604051631e4fbdf760e01b81525f600482015260240160405180910390fd5b620000c281620000cd565b505f600b5562000286565b600a80546001600160a01b038381166001600160a01b0319831681179093556040519116919082907f8be0079c531659141344cd1fd0a4f28419497f9722a3daafe3b4186f6b6457e0905f90a35050565b634e487b7160e01b5f52604160045260245ffd5b600181811c908216806200014757607f821691505b6020821081036200016657634e487b7160e01b5f52602260045260245ffd5b50919050565b601f821115620001b9575f81815260208120601f850160051c81016020861015620001945750805b601f850160051c820191505b81811015620001b557828155600101620001a0565b5050505b505050565b81516001600160401b03811115620001da57620001da6200011e565b620001f281620001eb845462000132565b846200016c565b602080601f83116001811462000228575f8415620002105750858301515b5f19600386901b1c1916600185901b178555620001b5565b5f85815260208120601f198616915b82811015620002585788860151825594840194600190910190840162000237565b50858210156200027657878501515f19600388901b60f8161c191681555b5050505050600190811b01905550565b61165e80620002945f395ff3fe608060405234801561000f575f80fd5b506004361061013d575f3560e01c80636352211e116100b457806395d89b411161007957806395d89b41146102a0578063a22cb465146102a8578063b88d4fde146102bb578063c87b56dd146102ce578063e985e9c5146102e1578063f2fde38b146102f4575f80fd5b80636352211e1461024e5780636a6278421461026157806370a0823114610274578063715018a6146102875780638da5cb5b1461028f575f80fd5b806318160ddd1161010557806318160ddd146101d157806323b872dd146101e35780632cda4bb3146101f65780632f745c591461021557806342842e0e146102285780634f6ccce71461023b575f80fd5b806301ffc9a7146101415780630675f7631461016957806306fdde031461017e578063081812fc14610193578063095ea7b3146101be575b5f80fd5b61015461014f366004611270565b610307565b60405190151581526020015b60405180910390f35b61017c61017736600461128b565b610317565b005b6101866103a4565b60405161016091906112f8565b6101a66101a136600461130a565b610433565b6040516001600160a01b039091168152602001610160565b61017c6101cc36600461133c565b61045a565b6008545b604051908152602001610160565b61017c6101f1366004611364565b610469565b6101d561020436600461130a565b600d6020525f908152604090205481565b6101d561022336600461133c565b6104f2565b61017c610236366004611364565b610555565b6101d561024936600461130a565b610574565b6101a661025c36600461130a565b6105c9565b61017c61026f36600461139d565b6105d3565b6101d561028236600461139d565b610695565b61017c6106da565b600a546001600160a01b03166101a6565b6101866106ed565b61017c6102b63660046113b6565b6106fc565b61017c6102c9366004611403565b610707565b6101866102dc36600461130a565b61071f565b6101546102ef3660046114d8565b610790565b61017c61030236600461139d565b6107bd565b5f610311826107fa565b92915050565b61031f61081e565b5f828152600260205260409020546001600160a01b031661037e5760405162461bcd60e51b8152602060048201526014602482015273151bdad95b88191bd95cc81b9bdd08195e1a5cdd60621b60448201526064015b60405180910390fd5b5f828152600d60205260408120805483929061039b90849061151d565b90915550505050565b60605f80546103b290611530565b80601f01602080910402602001604051908101604052809291908181526020018280546103de90611530565b80156104295780601f1061040057610100808354040283529160200191610429565b820191905f5260205f20905b81548152906001019060200180831161040c57829003601f168201915b5050505050905090565b5f61043d8261084b565b505f828152600460205260409020546001600160a01b0316610311565b610465828233610883565b5050565b6001600160a01b03821661049257604051633250574960e11b81525f6004820152602401610375565b5f61049e838333610890565b9050836001600160a01b0316816001600160a01b0316146104ec576040516364283d7b60e01b81526001600160a01b0380861660048301526024820184905282166044820152606401610375565b50505050565b5f6104fc83610695565b821061052d5760405163295f44f760e21b81526001600160a01b038416600482015260248101839052604401610375565b506001600160a01b03919091165f908152600660209081526040808320938352929052205490565b61056f83838360405180602001604052805f815250610707565b505050565b5f61057e60085490565b82106105a65760405163295f44f760e21b81525f600482015260248101839052604401610375565b600882815481106105b9576105b9611568565b905f5260205f2001549050919050565b5f6103118261084b565b6105db61081e565b6001600160a01b0381165f908152600c602052604090205460ff161561064d5760405162461bcd60e51b815260206004820152602160248201527f416464726573732068617320616c7265616479206d696e74656420616e2053426044820152601560fa1b6064820152608401610375565b6001600b5f82825461065f919061151d565b9250508190555061067281600b5461092d565b6001600160a01b03165f908152600c60205260409020805460ff19166001179055565b5f6001600160a01b0382166106bf576040516322718ad960e21b81525f6004820152602401610375565b506001600160a01b03165f9081526003602052604090205490565b6106e261081e565b6106eb5f61098e565b565b6060600180546103b290611530565b6104653383836109df565b610712848484610469565b6104ec3385858585610a7d565b606061072a8261084b565b505f61074060408051602081019091525f815290565b90505f81511161075e5760405180602001604052805f815250610789565b8061076884610ba5565b60405160200161077992919061157c565b6040516020818303038152906040525b9392505050565b6001600160a01b039182165f90815260056020908152604080832093909416825291909152205460ff1690565b6107c561081e565b6001600160a01b0381166107ee57604051631e4fbdf760e01b81525f6004820152602401610375565b6107f78161098e565b50565b5f6001600160e01b0319821663780e9d6360e01b1480610311575061031182610c35565b600a546001600160a01b031633146106eb5760405163118cdaa760e01b8152336004820152602401610375565b5f818152600260205260408120546001600160a01b03168061031157604051637e27328960e01b815260048101849052602401610375565b61056f8383836001610c84565b5f828152600260205260408120546001600160a01b03168015806108bb57506001600160a01b038516155b6109195760405162461bcd60e51b815260206004820152602960248201527f536f756c426f756e64546f6b656e3a20546f6b656e206973206e6f6e2d7472616044820152686e7366657261626c6560b81b6064820152608401610375565b610924858585610d88565b95945050505050565b6001600160a01b03821661095657604051633250574960e11b81525f6004820152602401610375565b5f61096283835f610890565b90506001600160a01b0381161561056f576040516339e3563760e11b81525f6004820152602401610375565b600a80546001600160a01b038381166001600160a01b0319831681179093556040519116919082907f8be0079c531659141344cd1fd0a4f28419497f9722a3daafe3b4186f6b6457e0905f90a35050565b6001600160a01b038216610a1157604051630b61174360e31b81526001600160a01b0383166004820152602401610375565b6001600160a01b038381165f81815260056020908152604080832094871680845294825291829020805460ff191686151590811790915591519182527f17307eab39ab6107e8899845ad3d59bd9653f200f220920489ca2b5937696c31910160405180910390a3505050565b6001600160a01b0383163b15610b9e57604051630a85bd0160e11b81526001600160a01b0384169063150b7a0290610abf9088908890879087906004016115aa565b6020604051808303815f875af1925050508015610af9575060408051601f3d908101601f19168201909252610af6918101906115e6565b60015b610b60573d808015610b26576040519150601f19603f3d011682016040523d82523d5f602084013e610b2b565b606091505b5080515f03610b5857604051633250574960e11b81526001600160a01b0385166004820152602401610375565b805181602001fd5b6001600160e01b03198116630a85bd0160e11b14610b9c57604051633250574960e11b81526001600160a01b0385166004820152602401610375565b505b5050505050565b60605f610bb183610e5b565b60010190505f8167ffffffffffffffff811115610bd057610bd06113ef565b6040519080825280601f01601f191660200182016040528015610bfa576020820181803683370190505b5090508181016020015b5f19016f181899199a1a9b1b9c1cb0b131b232b360811b600a86061a8153600a8504945084610c0457509392505050565b5f6001600160e01b031982166380ac58cd60e01b1480610c6557506001600160e01b03198216635b5e139f60e01b145b8061031157506301ffc9a760e01b6001600160e01b0319831614610311565b8080610c9857506001600160a01b03821615155b15610d59575f610ca78461084b565b90506001600160a01b03831615801590610cd35750826001600160a01b0316816001600160a01b031614155b8015610ce65750610ce48184610790565b155b15610d0f5760405163a9fbf51f60e01b81526001600160a01b0384166004820152602401610375565b8115610d575783856001600160a01b0316826001600160a01b03167f8c5be1e5ebec7d5bd14f71427d1e84f3dd0314c0f7b2291e5b200ac8c7c3b92560405160405180910390a45b505b50505f90815260046020526040902080546001600160a01b0319166001600160a01b0392909216919091179055565b5f80610d95858585610f32565b90506001600160a01b038116610df157610dec84600880545f838152600960205260408120829055600182018355919091527ff3f7a9fe364faab93b216da50a3214154f22a0a2b415b23a84c8169e8b636ee30155565b610e14565b846001600160a01b0316816001600160a01b031614610e1457610e148185611024565b6001600160a01b038516610e3057610e2b846110a1565b610e53565b846001600160a01b0316816001600160a01b031614610e5357610e538585611148565b949350505050565b5f8072184f03e93ff9f4daa797ed6e38ed64bf6a1f0160401b8310610e995772184f03e93ff9f4daa797ed6e38ed64bf6a1f0160401b830492506040015b6d04ee2d6d415b85acef81000000008310610ec5576d04ee2d6d415b85acef8100000000830492506020015b662386f26fc100008310610ee357662386f26fc10000830492506010015b6305f5e1008310610efb576305f5e100830492506008015b6127108310610f0f57612710830492506004015b60648310610f21576064830492506002015b600a83106103115760010192915050565b5f828152600260205260408120546001600160a01b0390811690831615610f5e57610f5e818486611196565b6001600160a01b03811615610f9857610f795f855f80610c84565b6001600160a01b0381165f90815260036020526040902080545f190190555b6001600160a01b03851615610fc6576001600160a01b0385165f908152600360205260409020805460010190555b5f8481526002602052604080822080546001600160a01b0319166001600160a01b0389811691821790925591518793918516917fddf252ad1be2c89b69c2b068fc378daa952ba7f163c4a11628f55a4df523b3ef91a4949350505050565b5f61102e83610695565b5f838152600760209081526040808320546001600160a01b0388168452600690925290912091925090818314611083575f83815260208281526040808320548584528184208190558352600790915290208290555b5f938452600760209081526040808620869055938552525081205550565b6008545f906110b290600190611601565b5f83815260096020526040812054600880549394509092849081106110d9576110d9611568565b905f5260205f200154905080600883815481106110f8576110f8611568565b5f91825260208083209091019290925582815260099091526040808220849055858252812055600880548061112f5761112f611614565b600190038181905f5260205f20015f9055905550505050565b5f600161115484610695565b61115e9190611601565b6001600160a01b039093165f908152600660209081526040808320868452825280832085905593825260079052919091209190915550565b6111a18383836111fa565b61056f576001600160a01b0383166111cf57604051637e27328960e01b815260048101829052602401610375565b60405163177e802f60e01b81526001600160a01b038316600482015260248101829052604401610375565b5f6001600160a01b03831615801590610e535750826001600160a01b0316846001600160a01b0316148061123357506112338484610790565b80610e535750505f908152600460205260409020546001600160a01b03908116911614919050565b6001600160e01b0319811681146107f7575f80fd5b5f60208284031215611280575f80fd5b81356107898161125b565b5f806040838503121561129c575f80fd5b50508035926020909101359150565b5f5b838110156112c55781810151838201526020016112ad565b50505f910152565b5f81518084526112e48160208601602086016112ab565b601f01601f19169290920160200192915050565b602081525f61078960208301846112cd565b5f6020828403121561131a575f80fd5b5035919050565b80356001600160a01b0381168114611337575f80fd5b919050565b5f806040838503121561134d575f80fd5b61135683611321565b946020939093013593505050565b5f805f60608486031215611376575f80fd5b61137f84611321565b925061138d60208501611321565b9150604084013590509250925092565b5f602082840312156113ad575f80fd5b61078982611321565b5f80604083850312156113c7575f80fd5b6113d083611321565b9150602083013580151581146113e4575f80fd5b809150509250929050565b634e487b7160e01b5f52604160045260245ffd5b5f805f8060808587031215611416575f80fd5b61141f85611321565b935061142d60208601611321565b925060408501359150606085013567ffffffffffffffff80821115611450575f80fd5b818701915087601f830112611463575f80fd5b813581811115611475576114756113ef565b604051601f8201601f19908116603f0116810190838211818310171561149d5761149d6113ef565b816040528281528a60208487010111156114b5575f80fd5b826020860160208301375f60208483010152809550505050505092959194509250565b5f80604083850312156114e9575f80fd5b6114f283611321565b915061150060208401611321565b90509250929050565b634e487b7160e01b5f52601160045260245ffd5b8082018082111561031157610311611509565b600181811c9082168061154457607f821691505b60208210810361156257634e487b7160e01b5f52602260045260245ffd5b50919050565b634e487b7160e01b5f52603260045260245ffd5b5f835161158d8184602088016112ab565b8351908301906115a18183602088016112ab565b01949350505050565b6001600160a01b03858116825284166020820152604081018390526080606082018190525f906115dc908301846112cd565b9695505050505050565b5f602082840312156115f6575f80fd5b81516107898161125b565b8181038181111561031157610311611509565b634e487b7160e01b5f52603160045260245ffdfea2646970667358221220e0ea36497f3d33d81d07e2b6d6dc055f56add77f726f4c7160eef2d04aa09d8564736f6c63430008140033",
  "immutableReferences": {},
  "source": "// SPDX-License-Identifier: MIT\npragma solidity ^0.8.20;\n\nimport \"@openzeppelin/contracts/token/ERC721/ERC721.sol\";\nimport \"@openzeppelin/contracts/token/ERC721/extensions/ERC721Enumerable.sol\";\nimport \"@openzeppelin/contracts/access/Ownable.sol\";\n\ncontract SoulBoundToken is ERC721, ERC721Enumerable, Ownable {\n    uint256 private _tokenIdCounter;\n    mapping(address => bool) private _hasMinted;\n    mapping(uint256 => uint256) public reputationPoints;\n\n    constructor() ERC721(\"NGU Soul Bound Token\", \"NGUSBT\") Ownable(msg.sender) {\n        _tokenIdCounter = 0;\n    }\n\n    function mint(address to) public onlyOwner {\n        require(!_hasMinted[to], \"Address has already minted an SBT\");\n        _tokenIdCounter += 1;\n        _mint(to, _tokenIdCounter);\n        _hasMinted[to] = true;\n    }\n\n    function updateReputation(uint256 tokenId, uint256 points) public onlyOwner {\n        require(_ownerOf(tokenId) != address(0), \"Token does not exist\");\n        reputationPoints[tokenId] += points;\n    }\n\n    // Override required by ERC721Enumerable\n    function _update(address to, uint256 tokenId, address auth) internal override(ERC721, ERC721Enumerable) returns (address) {\n        address from = _ownerOf(tokenId);\n        require(from == address(0) || to == address(0), \"SoulBoundToken: Token is non-transferable\");\n        return super._update(to, tokenId, auth);\n    }\n\n    // Override required by ERC721Enumerable\n    function _increaseBalance(address account, uint128 value) internal override(ERC721, ERC721Enumerable) {\n        super._increaseBalance(account, value);\n    }\n\n    // Override required by ERC721Enumerable\n    function supportsInterface(bytes4 interfaceId) public view virtual override(ERC721, ERC721Enumerable) returns (bool) {\n        return super.supportsInterface(interfaceId);\n    }\n}",
  "sourcePath": "/workspaces/GmoonNeverGiveUp/contracts/SoulBoundToken.sol",
  "compiler": {
    "name": "solc",
    "version": "0.8.20+commit.a1b79de6.Emscripten.clang"
  },
  "schemaVersion": "3.4.16",
  "updatedAt": "2025-03-26T14:53:54.232Z",
  "devdoc": {
    "errors": {
      "ERC721EnumerableForbiddenBatchMint()": [
        {
          "details": "Batch mint is not allowed."
        }
      ],
      "ERC721IncorrectOwner(address,uint256,address)": [
        {
          "details": "Indicates an error related to the ownership over a particular token. Used in transfers.",
          "params": {
            "owner": "Address of the current owner of a token.",
            "sender": "Address whose tokens are being transferred.",
            "tokenId": "Identifier number of a token."
          }
        }
      ],
      "ERC721InsufficientApproval(address,uint256)": [
        {
          "details": "Indicates a failure with the `operator`s approval. Used in transfers.",
          "params": {
            "operator": "Address that may be allowed to operate on tokens without being their owner.",
            "tokenId": "Identifier number of a token."
          }
        }
      ],
      "ERC721InvalidApprover(address)": [
        {
          "details": "Indicates a failure with the `approver` of a token to be approved. Used in approvals.",
          "params": {
            "approver": "Address initiating an approval operation."
          }
        }
      ],
      "ERC721InvalidOperator(address)": [
        {
          "details": "Indicates a failure with the `operator` to be approved. Used in approvals.",
          "params": {
            "operator": "Address that may be allowed to operate on tokens without being their owner."
          }
        }
      ],
      "ERC721InvalidOwner(address)": [
        {
          "details": "Indicates that an address can't be an owner. For example, `address(0)` is a forbidden owner in ERC-20. Used in balance queries.",
          "params": {
            "owner": "Address of the current owner of a token."
          }
        }
      ],
      "ERC721InvalidReceiver(address)": [
        {
          "details": "Indicates a failure with the token `receiver`. Used in transfers.",
          "params": {
            "receiver": "Address to which tokens are being transferred."
          }
        }
      ],
      "ERC721InvalidSender(address)": [
        {
          "details": "Indicates a failure with the token `sender`. Used in transfers.",
          "params": {
            "sender": "Address whose tokens are being transferred."
          }
        }
      ],
      "ERC721NonexistentToken(uint256)": [
        {
          "details": "Indicates a `tokenId` whose `owner` is the zero address.",
          "params": {
            "tokenId": "Identifier number of a token."
          }
        }
      ],
      "ERC721OutOfBoundsIndex(address,uint256)": [
        {
          "details": "An `owner`'s token query was out of bounds for `index`. NOTE: The owner being `address(0)` indicates a global out of bounds index."
        }
      ],
      "OwnableInvalidOwner(address)": [
        {
          "details": "The owner is not a valid owner account. (eg. `address(0)`)"
        }
      ],
      "OwnableUnauthorizedAccount(address)": [
        {
          "details": "The caller account is not authorized to perform an operation."
        }
      ]
    },
    "events": {
      "Approval(address,address,uint256)": {
        "details": "Emitted when `owner` enables `approved` to manage the `tokenId` token."
      },
      "ApprovalForAll(address,address,bool)": {
        "details": "Emitted when `owner` enables or disables (`approved`) `operator` to manage all of its assets."
      },
      "Transfer(address,address,uint256)": {
        "details": "Emitted when `tokenId` token is transferred from `from` to `to`."
      }
    },
    "kind": "dev",
    "methods": {
      "approve(address,uint256)": {
        "details": "See {IERC721-approve}."
      },
      "balanceOf(address)": {
        "details": "See {IERC721-balanceOf}."
      },
      "getApproved(uint256)": {
        "details": "See {IERC721-getApproved}."
      },
      "isApprovedForAll(address,address)": {
        "details": "See {IERC721-isApprovedForAll}."
      },
      "name()": {
        "details": "See {IERC721Metadata-name}."
      },
      "owner()": {
        "details": "Returns the address of the current owner."
      },
      "ownerOf(uint256)": {
        "details": "See {IERC721-ownerOf}."
      },
      "renounceOwnership()": {
        "details": "Leaves the contract without owner. It will not be possible to call `onlyOwner` functions. Can only be called by the current owner. NOTE: Renouncing ownership will leave the contract without an owner, thereby disabling any functionality that is only available to the owner."
      },
      "safeTransferFrom(address,address,uint256)": {
        "details": "See {IERC721-safeTransferFrom}."
      },
      "safeTransferFrom(address,address,uint256,bytes)": {
        "details": "See {IERC721-safeTransferFrom}."
      },
      "setApprovalForAll(address,bool)": {
        "details": "See {IERC721-setApprovalForAll}."
      },
      "symbol()": {
        "details": "See {IERC721Metadata-symbol}."
      },
      "tokenByIndex(uint256)": {
        "details": "See {IERC721Enumerable-tokenByIndex}."
      },
      "tokenOfOwnerByIndex(address,uint256)": {
        "details": "See {IERC721Enumerable-tokenOfOwnerByIndex}."
      },
      "tokenURI(uint256)": {
        "details": "See {IERC721Metadata-tokenURI}."
      },
      "totalSupply()": {
        "details": "See {IERC721Enumerable-totalSupply}."
      },
      "transferFrom(address,address,uint256)": {
        "details": "See {IERC721-transferFrom}."
      },
      "transferOwnership(address)": {
        "details": "Transfers ownership of the contract to a new account (`newOwner`). Can only be called by the current owner."
      }
    },
    "version": 1
  },
  "userdoc": {
    "kind": "user",
    "methods": {},
    "version": 1
  }
}